{
  "_format": "hh3-artifact-1",
  "contractName": "GHToken",
  "sourceName": "contracts/GHToken.sol",
  "abi": [
    {
      "inputs": [],
      "stateMutability": "nonpayable",
      "type": "constructor"
    },
    {
      "inputs": [],
      "name": "AccessControlBadConfirmation",
      "type": "error"
    },
    {
      "inputs": [
        {
          "internalType": "address",
          "name": "account",
          "type": "address"
        },
        {
          "internalType": "bytes32",
          "name": "neededRole",
          "type": "bytes32"
        }
      ],
      "name": "AccessControlUnauthorizedAccount",
      "type": "error"
    },
    {
      "inputs": [
        {
          "internalType": "address",
          "name": "spender",
          "type": "address"
        },
        {
          "internalType": "uint256",
          "name": "allowance",
          "type": "uint256"
        },
        {
          "internalType": "uint256",
          "name": "needed",
          "type": "uint256"
        }
      ],
      "name": "ERC20InsufficientAllowance",
      "type": "error"
    },
    {
      "inputs": [
        {
          "internalType": "address",
          "name": "sender",
          "type": "address"
        },
        {
          "internalType": "uint256",
          "name": "balance",
          "type": "uint256"
        },
        {
          "internalType": "uint256",
          "name": "needed",
          "type": "uint256"
        }
      ],
      "name": "ERC20InsufficientBalance",
      "type": "error"
    },
    {
      "inputs": [
        {
          "internalType": "address",
          "name": "approver",
          "type": "address"
        }
      ],
      "name": "ERC20InvalidApprover",
      "type": "error"
    },
    {
      "inputs": [
        {
          "internalType": "address",
          "name": "receiver",
          "type": "address"
        }
      ],
      "name": "ERC20InvalidReceiver",
      "type": "error"
    },
    {
      "inputs": [
        {
          "internalType": "address",
          "name": "sender",
          "type": "address"
        }
      ],
      "name": "ERC20InvalidSender",
      "type": "error"
    },
    {
      "inputs": [
        {
          "internalType": "address",
          "name": "spender",
          "type": "address"
        }
      ],
      "name": "ERC20InvalidSpender",
      "type": "error"
    },
    {
      "anonymous": false,
      "inputs": [
        {
          "indexed": true,
          "internalType": "address",
          "name": "owner",
          "type": "address"
        },
        {
          "indexed": true,
          "internalType": "address",
          "name": "spender",
          "type": "address"
        },
        {
          "indexed": false,
          "internalType": "uint256",
          "name": "value",
          "type": "uint256"
        }
      ],
      "name": "Approval",
      "type": "event"
    },
    {
      "anonymous": false,
      "inputs": [
        {
          "indexed": true,
          "internalType": "bytes32",
          "name": "role",
          "type": "bytes32"
        },
        {
          "indexed": true,
          "internalType": "bytes32",
          "name": "previousAdminRole",
          "type": "bytes32"
        },
        {
          "indexed": true,
          "internalType": "bytes32",
          "name": "newAdminRole",
          "type": "bytes32"
        }
      ],
      "name": "RoleAdminChanged",
      "type": "event"
    },
    {
      "anonymous": false,
      "inputs": [
        {
          "indexed": true,
          "internalType": "bytes32",
          "name": "role",
          "type": "bytes32"
        },
        {
          "indexed": true,
          "internalType": "address",
          "name": "account",
          "type": "address"
        },
        {
          "indexed": true,
          "internalType": "address",
          "name": "sender",
          "type": "address"
        }
      ],
      "name": "RoleGranted",
      "type": "event"
    },
    {
      "anonymous": false,
      "inputs": [
        {
          "indexed": true,
          "internalType": "bytes32",
          "name": "role",
          "type": "bytes32"
        },
        {
          "indexed": true,
          "internalType": "address",
          "name": "account",
          "type": "address"
        },
        {
          "indexed": true,
          "internalType": "address",
          "name": "sender",
          "type": "address"
        }
      ],
      "name": "RoleRevoked",
      "type": "event"
    },
    {
      "anonymous": false,
      "inputs": [
        {
          "indexed": true,
          "internalType": "address",
          "name": "to",
          "type": "address"
        },
        {
          "indexed": false,
          "internalType": "uint256",
          "name": "amount",
          "type": "uint256"
        },
        {
          "indexed": false,
          "internalType": "string",
          "name": "context",
          "type": "string"
        }
      ],
      "name": "TokenMinted",
      "type": "event"
    },
    {
      "anonymous": false,
      "inputs": [
        {
          "indexed": true,
          "internalType": "address",
          "name": "from",
          "type": "address"
        },
        {
          "indexed": true,
          "internalType": "address",
          "name": "to",
          "type": "address"
        },
        {
          "indexed": false,
          "internalType": "uint256",
          "name": "value",
          "type": "uint256"
        }
      ],
      "name": "Transfer",
      "type": "event"
    },
    {
      "inputs": [],
      "name": "DEFAULT_ADMIN_ROLE",
      "outputs": [
        {
          "internalType": "bytes32",
          "name": "",
          "type": "bytes32"
        }
      ],
      "stateMutability": "view",
      "type": "function"
    },
    {
      "inputs": [
        {
          "internalType": "address",
          "name": "owner",
          "type": "address"
        },
        {
          "internalType": "address",
          "name": "spender",
          "type": "address"
        }
      ],
      "name": "allowance",
      "outputs": [
        {
          "internalType": "uint256",
          "name": "",
          "type": "uint256"
        }
      ],
      "stateMutability": "view",
      "type": "function"
    },
    {
      "inputs": [
        {
          "internalType": "address",
          "name": "spender",
          "type": "address"
        },
        {
          "internalType": "uint256",
          "name": "value",
          "type": "uint256"
        }
      ],
      "name": "approve",
      "outputs": [
        {
          "internalType": "bool",
          "name": "",
          "type": "bool"
        }
      ],
      "stateMutability": "nonpayable",
      "type": "function"
    },
    {
      "inputs": [
        {
          "internalType": "address",
          "name": "account",
          "type": "address"
        }
      ],
      "name": "balanceOf",
      "outputs": [
        {
          "internalType": "uint256",
          "name": "",
          "type": "uint256"
        }
      ],
      "stateMutability": "view",
      "type": "function"
    },
    {
      "inputs": [
        {
          "internalType": "uint256",
          "name": "amount",
          "type": "uint256"
        }
      ],
      "name": "burn",
      "outputs": [],
      "stateMutability": "nonpayable",
      "type": "function"
    },
    {
      "inputs": [],
      "name": "decimals",
      "outputs": [
        {
          "internalType": "uint8",
          "name": "",
          "type": "uint8"
        }
      ],
      "stateMutability": "view",
      "type": "function"
    },
    {
      "inputs": [
        {
          "internalType": "bytes32",
          "name": "role",
          "type": "bytes32"
        }
      ],
      "name": "getRoleAdmin",
      "outputs": [
        {
          "internalType": "bytes32",
          "name": "",
          "type": "bytes32"
        }
      ],
      "stateMutability": "view",
      "type": "function"
    },
    {
      "inputs": [
        {
          "internalType": "bytes32",
          "name": "role",
          "type": "bytes32"
        },
        {
          "internalType": "address",
          "name": "account",
          "type": "address"
        }
      ],
      "name": "grantRole",
      "outputs": [],
      "stateMutability": "nonpayable",
      "type": "function"
    },
    {
      "inputs": [
        {
          "internalType": "bytes32",
          "name": "role",
          "type": "bytes32"
        },
        {
          "internalType": "address",
          "name": "account",
          "type": "address"
        }
      ],
      "name": "hasRole",
      "outputs": [
        {
          "internalType": "bool",
          "name": "",
          "type": "bool"
        }
      ],
      "stateMutability": "view",
      "type": "function"
    },
    {
      "inputs": [
        {
          "internalType": "address",
          "name": "to",
          "type": "address"
        },
        {
          "internalType": "uint256",
          "name": "amount",
          "type": "uint256"
        }
      ],
      "name": "mint",
      "outputs": [],
      "stateMutability": "nonpayable",
      "type": "function"
    },
    {
      "inputs": [],
      "name": "name",
      "outputs": [
        {
          "internalType": "string",
          "name": "",
          "type": "string"
        }
      ],
      "stateMutability": "view",
      "type": "function"
    },
    {
      "inputs": [
        {
          "internalType": "bytes32",
          "name": "role",
          "type": "bytes32"
        },
        {
          "internalType": "address",
          "name": "callerConfirmation",
          "type": "address"
        }
      ],
      "name": "renounceRole",
      "outputs": [],
      "stateMutability": "nonpayable",
      "type": "function"
    },
    {
      "inputs": [
        {
          "internalType": "bytes32",
          "name": "role",
          "type": "bytes32"
        },
        {
          "internalType": "address",
          "name": "account",
          "type": "address"
        }
      ],
      "name": "revokeRole",
      "outputs": [],
      "stateMutability": "nonpayable",
      "type": "function"
    },
    {
      "inputs": [
        {
          "internalType": "bytes4",
          "name": "interfaceId",
          "type": "bytes4"
        }
      ],
      "name": "supportsInterface",
      "outputs": [
        {
          "internalType": "bool",
          "name": "",
          "type": "bool"
        }
      ],
      "stateMutability": "view",
      "type": "function"
    },
    {
      "inputs": [],
      "name": "symbol",
      "outputs": [
        {
          "internalType": "string",
          "name": "",
          "type": "string"
        }
      ],
      "stateMutability": "view",
      "type": "function"
    },
    {
      "inputs": [],
      "name": "totalSupply",
      "outputs": [
        {
          "internalType": "uint256",
          "name": "",
          "type": "uint256"
        }
      ],
      "stateMutability": "view",
      "type": "function"
    },
    {
      "inputs": [
        {
          "internalType": "address",
          "name": "to",
          "type": "address"
        },
        {
          "internalType": "uint256",
          "name": "value",
          "type": "uint256"
        }
      ],
      "name": "transfer",
      "outputs": [
        {
          "internalType": "bool",
          "name": "",
          "type": "bool"
        }
      ],
      "stateMutability": "nonpayable",
      "type": "function"
    },
    {
      "inputs": [
        {
          "internalType": "address",
          "name": "from",
          "type": "address"
        },
        {
          "internalType": "address",
          "name": "to",
          "type": "address"
        },
        {
          "internalType": "uint256",
          "name": "value",
          "type": "uint256"
        }
      ],
      "name": "transferFrom",
      "outputs": [
        {
          "internalType": "bool",
          "name": "",
          "type": "bool"
        }
      ],
      "stateMutability": "nonpayable",
      "type": "function"
    }
  ],
  "bytecode": "0x6080604052346103da57604080519081016001600160401b038111828210176102ed576040908152600782526623a41021a7a4a760c91b602083015280519081016001600160401b038111828210176102ed57604052600381526247484360e81b602082015281516001600160401b0381116102ed57600354600181811c911680156103d0575b60208210146102cf57601f811161036d575b50602092601f821160011461030c57928192935f92610301575b50508160011b915f199060031b1c1916176003555b80516001600160401b0381116102ed57600454600181811c911680156102e3575b60208210146102cf57601f811161026c575b50602091601f821160011461020c579181925f92610201575b50508160011b915f199060031b1c1916176004555b7f9f2df0fed2c77648de5860a4cc508cd0818c85b8b8a1ab4ceeef8d981c8956a660065560075433600890811b610100600160a81b03169190610100600160a81b031982168317901c6001600160a01b0316156101d2576001600160a81b0319161760011760078190556101a79060081c6001600160a01b03166103de565b506101c260065460018060a01b0360075460081c1690610454565b50604051610b0590816104ce8239f35b60405162461bcd60e51b8152602060048201526007602482015266061646d696e3d360cc1b6044820152606490fd5b015190505f80610113565b601f1982169260045f52805f20915f5b8581106102545750836001951061023c575b505050811b01600455610128565b01515f1960f88460031b161c191690555f808061022e565b9192602060018192868501518155019401920161021c565b60045f527f8a35acfbc15ff81a39ae7d344fd709f28e8600b4aa8c65c6b64bfe7fe36bd19b601f830160051c810191602084106102c5575b601f0160051c01905b8181106102ba57506100fa565b5f81556001016102ad565b90915081906102a4565b634e487b7160e01b5f52602260045260245ffd5b90607f16906100e8565b634e487b7160e01b5f52604160045260245ffd5b015190505f806100b2565b601f1982169360035f52805f20915f5b868110610355575083600195961061033d575b505050811b016003556100c7565b01515f1960f88460031b161c191690555f808061032f565b9192602060018192868501518155019401920161031c565b60035f527fc2575a0e9e593c00f959f8c92f12db2869c3395a3b0502d05e2516446f71f85b601f830160051c810191602084106103c6575b601f0160051c01905b8181106103bb5750610098565b5f81556001016103ae565b90915081906103a5565b90607f1690610086565b5f80fd5b6001600160a01b0381165f9081525f516020610ff35f395f51905f52602052604090205460ff1661044f576001600160a01b03165f8181525f516020610ff35f395f51905f5260205260408120805460ff191660011790553391905f516020610fd35f395f51905f528180a4600190565b505f90565b5f8181526005602090815260408083206001600160a01b038616845290915290205460ff166104c7575f8181526005602090815260408083206001600160a01b0395909516808452949091528120805460ff19166001179055339291905f516020610fd35f395f51905f529080a4600190565b50505f9056fe6080806040526004361015610012575f80fd5b5f3560e01c90816301ffc9a71461083a5750806306fdde0314610768578063095ea7b3146106e657806318160ddd146106c957806323b872dd146105e4578063248a9ca3146105b15780632f2ff15d14610573578063313ce5671461055857806336568abe1461051457806340c10f191461040657806342966c681461036657806370a082311461032f57806391d14854146102e557806395d89b41146101ca578063a217fddf146101b0578063a9059cbb1461017f578063d547741f1461013a5763dd62ed3e146100e2575f80fd5b34610136576040366003190112610136576100fb6108b7565b6001600160a01b0361010b6108cd565b91165f5260016020526001600160a01b0360405f2091165f52602052602060405f2054604051908152f35b5f80fd5b346101365760403660031901126101365761017d6004356101596108cd565b90610178610173825f526005602052600160405f20015490565b61097a565b610a4a565b005b34610136576040366003190112610136576101a561019b6108b7565b60243590336108e3565b602060405160018152f35b34610136575f3660031901126101365760206040515f8152f35b34610136575f366003190112610136576040515f6004548060011c906001811680156102db575b6020831081146102c7578285529081156102ab5750600114610256575b50819003601f01601f191681019067ffffffffffffffff8211818310176102425761023e8291826040528261088d565b0390f35b634e487b7160e01b5f52604160045260245ffd5b905060045f527f8a35acfbc15ff81a39ae7d344fd709f28e8600b4aa8c65c6b64bfe7fe36bd19b5f905b8282106102955750602091508201018261020e565b6001816020925483858801015201910190610280565b90506020925060ff191682840152151560051b8201018261020e565b634e487b7160e01b5f52602260045260245ffd5b91607f16916101f1565b34610136576040366003190112610136576102fe6108cd565b6004355f5260056020526001600160a01b0360405f2091165f52602052602060ff60405f2054166040519015158152f35b34610136576020366003190112610136576001600160a01b036103506108b7565b165f525f602052602060405f2054604051908152f35b346101365760203660031901126101365760043533156103f357335f525f60205260405f20548181106103da5790805f923384528360205203604083205580600254036002556040519081527fddf252ad1be2c89b69c2b068fc378daa952ba7f163c4a11628f55a4df523b3ef60203392a3005b63391434e360e21b5f523360045260245260445260645ffd5b634b637e8f60e11b5f525f60045260245ffd5b346101365760403660031901126101365761041f6108b7565b6001600160a01b036024359161043660065461097a565b16908115610501576002548181018091116104ed577fdf92894dc4675a7333caa5903b69cf5d8e8ec0d3f361c88207b6688e525703bb91608091600255835f525f60205260405f20818154019055835f7fddf252ad1be2c89b69c2b068fc378daa952ba7f163c4a11628f55a4df523b3ef6020604051858152a360405190815260406020820152600e60408201527f746f6b656e206772616e746564730000000000000000000000000000000000006060820152a2005b634e487b7160e01b5f52601160045260245ffd5b63ec442f0560e01b5f525f60045260245ffd5b346101365760403660031901126101365761052d6108cd565b336001600160a01b038216036105495761017d90600435610a4a565b63334bd91960e11b5f5260045ffd5b34610136575f36600319011261013657602060405160128152f35b346101365760403660031901126101365761017d6004356105926108cd565b906105ac610173825f526005602052600160405f20015490565b6109bb565b346101365760203660031901126101365760206105dc6004355f526005602052600160405f20015490565b604051908152f35b34610136576060366003190112610136576105fd6108b7565b6106056108cd565b604435906001600160a01b03831692835f52600160205260405f206001600160a01b0333165f5260205260405f20545f198110610648575b506101a593506108e3565b8381106106ae57841561069b573315610688576101a5945f52600160205260405f206001600160a01b0333165f526020528360405f20910390558461063d565b634a1406b160e11b5f525f60045260245ffd5b63e602df0560e01b5f525f60045260245ffd5b8390637dc7a0d960e11b5f523360045260245260445260645ffd5b34610136575f366003190112610136576020600254604051908152f35b34610136576040366003190112610136576106ff6108b7565b60243590331561069b576001600160a01b031690811561068857335f52600160205260405f20825f526020528060405f20556040519081527f8c5be1e5ebec7d5bd14f71427d1e84f3dd0314c0f7b2291e5b200ac8c7c3b92560203392a3602060405160018152f35b34610136575f366003190112610136576040515f6003548060011c90600181168015610830575b6020831081146102c7578285529081156102ab57506001146107db5750819003601f01601f191681019067ffffffffffffffff8211818310176102425761023e8291826040528261088d565b905060035f527fc2575a0e9e593c00f959f8c92f12db2869c3395a3b0502d05e2516446f71f85b5f905b82821061081a5750602091508201018261020e565b6001816020925483858801015201910190610805565b91607f169161078f565b34610136576020366003190112610136576004359063ffffffff60e01b821680920361013657602091637965db0b60e01b811490811561087c575b5015158152f35b6301ffc9a760e01b14905083610875565b602060409281835280519182918282860152018484015e5f828201840152601f01601f1916010190565b600435906001600160a01b038216820361013657565b602435906001600160a01b038216820361013657565b6001600160a01b03169081156103f3576001600160a01b031691821561050157815f525f60205260405f205481811061096157817fddf252ad1be2c89b69c2b068fc378daa952ba7f163c4a11628f55a4df523b3ef92602092855f525f84520360405f2055845f525f825260405f20818154019055604051908152a3565b8263391434e360e21b5f5260045260245260445260645ffd5b805f52600560205260405f206001600160a01b0333165f5260205260ff60405f205416156109a55750565b63e2517d3f60e01b5f523360045260245260445ffd5b805f52600560205260405f206001600160a01b0383165f5260205260ff60405f205416155f14610a4457805f52600560205260405f206001600160a01b0383165f5260205260405f20600160ff198254161790556001600160a01b03339216907f2f8788117e7eff1d82e926ec794901d17c78024a50270940304540a733656f0d5f80a4600190565b50505f90565b805f52600560205260405f206001600160a01b0383165f5260205260ff60405f2054165f14610a4457805f52600560205260405f206001600160a01b0383165f5260205260405f2060ff1981541690556001600160a01b03339216907ff6391f5c32d9c69d2a47ea670b442974b53935d1edc7fd64eb21e047a839171b5f80a460019056fea2646970667358221220f077b5455b80e148d9e095b19f28413619f6c7b67c47f23d6a7e666b1c4a513c64736f6c634300081c00332f8788117e7eff1d82e926ec794901d17c78024a50270940304540a733656f0d05b8ccbb9d4d8fb16ea74ce3c29a41f1b461fbdaff4714a0d9a8eb05499746bc",
  "linkReferences": {},
  "deployedLinkReferences": {},
  "immutableReferences": {},
  "inputSourceName": "project/contracts/GHToken.sol",
  "buildInfoId": "solc-0_8_28-db04e9731e09b70349d69413fd321ef36d6a82ab"
}