{
  "_format": "hh3-artifact-1",
  "contractName": "CarbonFactory",
  "sourceName": "contracts/CarbonFactory.sol",
  "abi": [
    {
      "inputs": [
        {
          "internalType": "address",
          "name": "admin_",
          "type": "address"
        },
        {
          "internalType": "address",
          "name": "_retireImpl",
          "type": "address"
        },
        {
          "internalType": "address",
          "name": "_projectImpl",
          "type": "address"
        },
        {
          "internalType": "address",
          "name": "_tokenImpl",
          "type": "address"
        }
      ],
      "stateMutability": "nonpayable",
      "type": "constructor"
    },
    {
      "inputs": [],
      "name": "AccessControlBadConfirmation",
      "type": "error"
    },
    {
      "inputs": [
        {
          "internalType": "address",
          "name": "account",
          "type": "address"
        },
        {
          "internalType": "bytes32",
          "name": "neededRole",
          "type": "bytes32"
        }
      ],
      "name": "AccessControlUnauthorizedAccount",
      "type": "error"
    },
    {
      "inputs": [],
      "name": "FailedDeployment",
      "type": "error"
    },
    {
      "inputs": [
        {
          "internalType": "uint256",
          "name": "balance",
          "type": "uint256"
        },
        {
          "internalType": "uint256",
          "name": "needed",
          "type": "uint256"
        }
      ],
      "name": "InsufficientBalance",
      "type": "error"
    },
    {
      "anonymous": false,
      "inputs": [
        {
          "indexed": true,
          "internalType": "address",
          "name": "owner",
          "type": "address"
        },
        {
          "indexed": true,
          "internalType": "address",
          "name": "clone",
          "type": "address"
        },
        {
          "indexed": false,
          "internalType": "uint256",
          "name": "projectId",
          "type": "uint256"
        },
        {
          "indexed": false,
          "internalType": "address",
          "name": "minter",
          "type": "address"
        }
      ],
      "name": "ProjectDeployed",
      "type": "event"
    },
    {
      "anonymous": false,
      "inputs": [
        {
          "indexed": true,
          "internalType": "bytes32",
          "name": "role",
          "type": "bytes32"
        },
        {
          "indexed": true,
          "internalType": "bytes32",
          "name": "previousAdminRole",
          "type": "bytes32"
        },
        {
          "indexed": true,
          "internalType": "bytes32",
          "name": "newAdminRole",
          "type": "bytes32"
        }
      ],
      "name": "RoleAdminChanged",
      "type": "event"
    },
    {
      "anonymous": false,
      "inputs": [
        {
          "indexed": true,
          "internalType": "bytes32",
          "name": "role",
          "type": "bytes32"
        },
        {
          "indexed": true,
          "internalType": "address",
          "name": "account",
          "type": "address"
        },
        {
          "indexed": true,
          "internalType": "address",
          "name": "sender",
          "type": "address"
        }
      ],
      "name": "RoleGranted",
      "type": "event"
    },
    {
      "anonymous": false,
      "inputs": [
        {
          "indexed": true,
          "internalType": "bytes32",
          "name": "role",
          "type": "bytes32"
        },
        {
          "indexed": true,
          "internalType": "address",
          "name": "account",
          "type": "address"
        },
        {
          "indexed": true,
          "internalType": "address",
          "name": "sender",
          "type": "address"
        }
      ],
      "name": "RoleRevoked",
      "type": "event"
    },
    {
      "inputs": [],
      "name": "DEFAULT_ADMIN_ROLE",
      "outputs": [
        {
          "internalType": "bytes32",
          "name": "",
          "type": "bytes32"
        }
      ],
      "stateMutability": "view",
      "type": "function"
    },
    {
      "inputs": [
        {
          "internalType": "address",
          "name": "",
          "type": "address"
        },
        {
          "internalType": "uint256",
          "name": "",
          "type": "uint256"
        }
      ],
      "name": "byOwner",
      "outputs": [
        {
          "internalType": "uint256",
          "name": "",
          "type": "uint256"
        }
      ],
      "stateMutability": "view",
      "type": "function"
    },
    {
      "inputs": [
        {
          "internalType": "string",
          "name": "name_",
          "type": "string"
        },
        {
          "internalType": "string",
          "name": "symbol_",
          "type": "string"
        },
        {
          "internalType": "uint256",
          "name": "projectId",
          "type": "uint256"
        },
        {
          "internalType": "address",
          "name": "owner_",
          "type": "address"
        },
        {
          "internalType": "address",
          "name": "paymentToken",
          "type": "address"
        },
        {
          "internalType": "address",
          "name": "retireContract",
          "type": "address"
        },
        {
          "internalType": "address",
          "name": "treasury",
          "type": "address"
        },
        {
          "internalType": "uint256",
          "name": "price",
          "type": "uint256"
        },
        {
          "internalType": "uint256",
          "name": "maxSupply",
          "type": "uint256"
        },
        {
          "internalType": "string",
          "name": "metadataURI",
          "type": "string"
        }
      ],
      "name": "createProjectClone",
      "outputs": [
        {
          "internalType": "address",
          "name": "clone",
          "type": "address"
        }
      ],
      "stateMutability": "nonpayable",
      "type": "function"
    },
    {
      "inputs": [
        {
          "internalType": "address",
          "name": "owner_",
          "type": "address"
        }
      ],
      "name": "getOwnerProjects",
      "outputs": [
        {
          "components": [
            {
              "internalType": "address",
              "name": "projectClone",
              "type": "address"
            },
            {
              "internalType": "uint256",
              "name": "projectId",
              "type": "uint256"
            },
            {
              "internalType": "address",
              "name": "owner",
              "type": "address"
            },
            {
              "internalType": "address",
              "name": "treasury",
              "type": "address"
            },
            {
              "internalType": "uint256",
              "name": "price",
              "type": "uint256"
            },
            {
              "internalType": "uint256",
              "name": "maxSupply",
              "type": "uint256"
            },
            {
              "internalType": "string",
              "name": "metadataURI",
              "type": "string"
            }
          ],
          "internalType": "struct CarbonFactory.ProjectRecord[]",
          "name": "list",
          "type": "tuple[]"
        }
      ],
      "stateMutability": "view",
      "type": "function"
    },
    {
      "inputs": [
        {
          "internalType": "bytes32",
          "name": "role",
          "type": "bytes32"
        }
      ],
      "name": "getRoleAdmin",
      "outputs": [
        {
          "internalType": "bytes32",
          "name": "",
          "type": "bytes32"
        }
      ],
      "stateMutability": "view",
      "type": "function"
    },
    {
      "inputs": [
        {
          "internalType": "bytes32",
          "name": "role",
          "type": "bytes32"
        },
        {
          "internalType": "address",
          "name": "account",
          "type": "address"
        }
      ],
      "name": "grantRole",
      "outputs": [],
      "stateMutability": "nonpayable",
      "type": "function"
    },
    {
      "inputs": [
        {
          "internalType": "bytes32",
          "name": "role",
          "type": "bytes32"
        },
        {
          "internalType": "address",
          "name": "account",
          "type": "address"
        }
      ],
      "name": "hasRole",
      "outputs": [
        {
          "internalType": "bool",
          "name": "",
          "type": "bool"
        }
      ],
      "stateMutability": "view",
      "type": "function"
    },
    {
      "inputs": [],
      "name": "projectImplementation",
      "outputs": [
        {
          "internalType": "address",
          "name": "",
          "type": "address"
        }
      ],
      "stateMutability": "view",
      "type": "function"
    },
    {
      "inputs": [
        {
          "internalType": "uint256",
          "name": "",
          "type": "uint256"
        }
      ],
      "name": "projects",
      "outputs": [
        {
          "internalType": "address",
          "name": "projectClone",
          "type": "address"
        },
        {
          "internalType": "uint256",
          "name": "projectId",
          "type": "uint256"
        },
        {
          "internalType": "address",
          "name": "owner",
          "type": "address"
        },
        {
          "internalType": "address",
          "name": "treasury",
          "type": "address"
        },
        {
          "internalType": "uint256",
          "name": "price",
          "type": "uint256"
        },
        {
          "internalType": "uint256",
          "name": "maxSupply",
          "type": "uint256"
        },
        {
          "internalType": "string",
          "name": "metadataURI",
          "type": "string"
        }
      ],
      "stateMutability": "view",
      "type": "function"
    },
    {
      "inputs": [
        {
          "internalType": "bytes32",
          "name": "role",
          "type": "bytes32"
        },
        {
          "internalType": "address",
          "name": "callerConfirmation",
          "type": "address"
        }
      ],
      "name": "renounceRole",
      "outputs": [],
      "stateMutability": "nonpayable",
      "type": "function"
    },
    {
      "inputs": [],
      "name": "retireImplementation",
      "outputs": [
        {
          "internalType": "address",
          "name": "",
          "type": "address"
        }
      ],
      "stateMutability": "view",
      "type": "function"
    },
    {
      "inputs": [
        {
          "internalType": "bytes32",
          "name": "role",
          "type": "bytes32"
        },
        {
          "internalType": "address",
          "name": "account",
          "type": "address"
        }
      ],
      "name": "revokeRole",
      "outputs": [],
      "stateMutability": "nonpayable",
      "type": "function"
    },
    {
      "inputs": [
        {
          "internalType": "bytes4",
          "name": "interfaceId",
          "type": "bytes4"
        }
      ],
      "name": "supportsInterface",
      "outputs": [
        {
          "internalType": "bool",
          "name": "",
          "type": "bool"
        }
      ],
      "stateMutability": "view",
      "type": "function"
    },
    {
      "inputs": [],
      "name": "tokenImplementation",
      "outputs": [
        {
          "internalType": "address",
          "name": "",
          "type": "address"
        }
      ],
      "stateMutability": "view",
      "type": "function"
    },
    {
      "inputs": [],
      "name": "totalProjects",
      "outputs": [
        {
          "internalType": "uint256",
          "name": "",
          "type": "uint256"
        }
      ],
      "stateMutability": "view",
      "type": "function"
    }
  ],
  "bytecode": "0x6080346100f857601f61102838819003918201601f19168301916001600160401b038311848410176100fc578084926080946040528339810103126100f85761004781610110565b9061005460208201610110565b9061006d606061006660408401610110565b9201610110565b926001600160a01b0316156100c957600180546001600160a01b03199081166001600160a01b039384161790915560028054821693831693909317909255600380549092169216919091179055604051610f0390816101258239f35b60405162461bcd60e51b8152602060048201526007602482015266061646d696e3d360cc1b6044820152606490fd5b5f80fd5b634e487b7160e01b5f52604160045260245ffd5b51906001600160a01b03821682036100f85756fe6080806040526004361015610012575f80fd5b5f905f3560e01c90816301ffc9a714610af157508063020e9a9314610acb5780630bc8300d14610aa5578063107046bd146109fe578063246f220b146107e7578063248a9ca3146107b55780632f2ff15d146107785780632f3a3d5d1461075257806336568abe1461070e57806391d14854146106c55780639c361e4e146106a8578063a217fddf1461068e578063c82fcef014610639578063d547741f146105f55763ea8e00ce146100c3575f80fd5b346105e2576101403660031901126105e25760043567ffffffffffffffff81116105e2576100f5903690600401610d03565b60249291923567ffffffffffffffff81116105e257610118903690600401610d03565b60449391933592606435956001600160a01b0387168097036105e2576084356001600160a01b0381168091036105e25760a4356001600160a01b0381168091036105e25760c435906001600160a01b0382168092036105e25760e4359261010435946101243567ffffffffffffffff81116105e25761019b903690600401610d03565b9790986e5af43d82803e903d91602b57fd5bf3600154763d602d80600a3d3981f3363d3d373d3d3d363d7300000062ffffff8260881c16175f526effffffffffffffffffffffffffffff199060781b16176020526001600160a01b03603760095ff0169c8d156105e6578d3b156105e257610243958f955f968f9361025590610291966040519b8c9a8b9a6317fd164960e21b8c5261016060048d01526101648c0191610d5d565b8981036003190160248b015291610d5d565b9360448701526064860152608485015260a48401528660c48401528760e48401528861010484015260031983820301610124840152898b610d5d565b336101448301520381838d5af180156105d7576105c2575b50604051936102b785610bac565b8885526020850188815260408601918b8352606087019384526080870194855260a0870195865267ffffffffffffffff81116105aa5760405197610305601f8301601f19166020018a610bdc565b81895236828201116105be57818a92602092838c01378901015260c08601968752600454680100000000000000008110156105aa5780600161034a9201600455610b44565b9690966105965751865473ffffffffffffffffffffffffffffffffffffffff199081166001600160a01b0392831617885591516001880155915160028701805483169184169190911790559151600386018054909316911617905551600483015551600582015590518051600692909201919067ffffffffffffffff82116105825781906103d88454610b74565b601f8111610532575b50602090601f83116001146104d05785926104c5575b50508160011b915f199060031b1c19161790555b8381526005602052604081206004545f19810192919083116104b1578054916801000000000000000083101561049d57508493602096936104758460409460017f3ac52badd69472e4e99c3a3a1ab55f837f03ded604dcc80ab46210a554135c3597018155610cee565b819291549060031b91821b915f19901b191617905581519081523387820152a3604051908152f35b634e487b7160e01b81526041600452602490fd5b634e487b7160e01b82526011600452602482fd5b015190505f806103f7565b8486528186209250601f198416865b81811061051a5750908460019594939210610502575b505050811b01905561040b565b01515f1960f88460031b161c191690555f80806104f5565b929360206001819287860151815501950193016104df565b90915083855260208520601f840160051c81019160208510610578575b90601f859493920160051c01905b81811061056a57506103e1565b86815584935060010161055d565b909150819061054f565b634e487b7160e01b84526041600452602484fd5b634e487b7160e01b89526004899052602489fd5b634e487b7160e01b89526041600452602489fd5b8980fd5b6105cf9196505f90610bdc565b5f945f6102a9565b6040513d5f823e3d90fd5b5f80fd5b63b06ebf3d60e01b5f5260045ffd5b346105e25760403660031901126105e257610637600435610614610cd8565b9061063261062d825f525f602052600160405f20015490565b610d7d565b610e4a565b005b346105e25760403660031901126105e257610652610cc2565b6001600160a01b0360243591165f52600560205260405f2080548210156105e25760209161067f91610cee565b90549060031b1c604051908152f35b346105e2575f3660031901126105e25760206040515f8152f35b346105e2575f3660031901126105e2576020600454604051908152f35b346105e25760403660031901126105e2576106de610cd8565b6004355f525f6020526001600160a01b0360405f2091165f52602052602060ff60405f2054166040519015158152f35b346105e25760403660031901126105e257610727610cd8565b336001600160a01b038216036107435761063790600435610e4a565b63334bd91960e11b5f5260045ffd5b346105e2575f3660031901126105e25760206001600160a01b0360035416604051908152f35b346105e25760403660031901126105e257610637600435610797610cd8565b906107b061062d825f525f602052600160405f20015490565b610dbd565b346105e25760203660031901126105e25760206107df6004355f525f602052600160405f20015490565b604051908152f35b346105e25760203660031901126105e2576001600160a01b03610808610cc2565b165f52600560205260405f20805461081f81610d31565b9161082d6040519384610bdc565b818352601f1961083c83610d31565b015f5b8181106109bc5750505f5b82811061091657836040518091602082016020835281518091526040830190602060408260051b8601019301915f905b82821061088957505050500390f35b919360019193955060206109068192603f198a820301865260e060c08a516001600160a01b03815116845285810151868501526001600160a01b0360408201511660408501526001600160a01b0360608201511660608501526080810151608085015260a081015160a08501520151918160c08201520190610c9e565b960192019201859493919261087a565b8061093261092660019385610cee565b90549060031b1c610b44565b5061099b60066040519261094584610bac565b6001600160a01b0381541684528581015460208501526001600160a01b0360028201541660408501526001600160a01b03600382015416606085015260048101546080850152600581015460a085015201610bfe565b60c08201526109aa8287610d49565b526109b58186610d49565b500161084a565b6020906040516109cb81610bac565b5f81525f838201525f60408201525f60608201525f60808201525f60a0820152606060c08201528282880101520161083f565b346105e25760203660031901126105e2576004356004548110156105e257610a2590610b44565b506001600160a01b03815416610aa16001830154926001600160a01b03600282015416906001600160a01b03600382015416600482015490610a6e600660058501549401610bfe565b936040519788978852602088015260408701526060860152608085015260a084015260e060c084015260e0830190610c9e565b0390f35b346105e2575f3660031901126105e25760206001600160a01b0360025416604051908152f35b346105e2575f3660031901126105e25760206001600160a01b0360015416604051908152f35b346105e25760203660031901126105e2576004359063ffffffff60e01b82168092036105e257602091637965db0b60e01b8114908115610b33575b5015158152f35b6301ffc9a760e01b14905083610b2c565b600454811015610b605760045f52600760205f20910201905f90565b634e487b7160e01b5f52603260045260245ffd5b90600182811c92168015610ba2575b6020831014610b8e57565b634e487b7160e01b5f52602260045260245ffd5b91607f1691610b83565b60e0810190811067ffffffffffffffff821117610bc857604052565b634e487b7160e01b5f52604160045260245ffd5b90601f8019910116810190811067ffffffffffffffff821117610bc857604052565b9060405191825f825492610c1184610b74565b8084529360018116908115610c7c5750600114610c38575b50610c3692500383610bdc565b565b90505f9291925260205f20905f915b818310610c60575050906020610c36928201015f610c29565b6020919350806001915483858901015201910190918492610c47565b905060209250610c3694915060ff191682840152151560051b8201015f610c29565b805180835260209291819084018484015e5f828201840152601f01601f1916010190565b600435906001600160a01b03821682036105e257565b602435906001600160a01b03821682036105e257565b8054821015610b60575f5260205f2001905f90565b9181601f840112156105e25782359167ffffffffffffffff83116105e257602083818601950101116105e257565b67ffffffffffffffff8111610bc85760051b60200190565b8051821015610b605760209160051b010190565b908060209392818452848401375f828201840152601f01601f1916010190565b805f525f60205260405f206001600160a01b0333165f5260205260ff60405f20541615610da75750565b63e2517d3f60e01b5f523360045260245260445ffd5b805f525f60205260405f206001600160a01b0383165f5260205260ff60405f205416155f14610e4457805f525f60205260405f206001600160a01b0383165f5260205260405f20600160ff198254161790556001600160a01b03339216907f2f8788117e7eff1d82e926ec794901d17c78024a50270940304540a733656f0d5f80a4600190565b50505f90565b805f525f60205260405f206001600160a01b0383165f5260205260ff60405f2054165f14610e4457805f525f60205260405f206001600160a01b0383165f5260205260405f2060ff1981541690556001600160a01b03339216907ff6391f5c32d9c69d2a47ea670b442974b53935d1edc7fd64eb21e047a839171b5f80a460019056fea264697066735822122001f607282a91265fd49accd9fa96614cdbc09eb9882fd2519ed19f09937dd3d764736f6c634300081c0033",
  "linkReferences": {},
  "deployedLinkReferences": {},
  "immutableReferences": {},
  "inputSourceName": "project/contracts/CarbonFactory.sol",
  "buildInfoId": "solc-0_8_28-7691459fb7a8cf79d7b308091641917c927247c4"
}