{
  "_format": "hh3-artifact-1",
  "contractName": "CarbonRetireNFT",
  "sourceName": "contracts/CarbonRetireNFT.sol",
  "abi": [
    {
      "inputs": [
        {
          "internalType": "string",
          "name": "baseURI_",
          "type": "string"
        }
      ],
      "stateMutability": "nonpayable",
      "type": "constructor"
    },
    {
      "inputs": [],
      "name": "AccessControlBadConfirmation",
      "type": "error"
    },
    {
      "inputs": [
        {
          "internalType": "address",
          "name": "account",
          "type": "address"
        },
        {
          "internalType": "bytes32",
          "name": "neededRole",
          "type": "bytes32"
        }
      ],
      "name": "AccessControlUnauthorizedAccount",
      "type": "error"
    },
    {
      "inputs": [
        {
          "internalType": "address",
          "name": "sender",
          "type": "address"
        },
        {
          "internalType": "uint256",
          "name": "tokenId",
          "type": "uint256"
        },
        {
          "internalType": "address",
          "name": "owner",
          "type": "address"
        }
      ],
      "name": "ERC721IncorrectOwner",
      "type": "error"
    },
    {
      "inputs": [
        {
          "internalType": "address",
          "name": "operator",
          "type": "address"
        },
        {
          "internalType": "uint256",
          "name": "tokenId",
          "type": "uint256"
        }
      ],
      "name": "ERC721InsufficientApproval",
      "type": "error"
    },
    {
      "inputs": [
        {
          "internalType": "address",
          "name": "approver",
          "type": "address"
        }
      ],
      "name": "ERC721InvalidApprover",
      "type": "error"
    },
    {
      "inputs": [
        {
          "internalType": "address",
          "name": "operator",
          "type": "address"
        }
      ],
      "name": "ERC721InvalidOperator",
      "type": "error"
    },
    {
      "inputs": [
        {
          "internalType": "address",
          "name": "owner",
          "type": "address"
        }
      ],
      "name": "ERC721InvalidOwner",
      "type": "error"
    },
    {
      "inputs": [
        {
          "internalType": "address",
          "name": "receiver",
          "type": "address"
        }
      ],
      "name": "ERC721InvalidReceiver",
      "type": "error"
    },
    {
      "inputs": [
        {
          "internalType": "address",
          "name": "sender",
          "type": "address"
        }
      ],
      "name": "ERC721InvalidSender",
      "type": "error"
    },
    {
      "inputs": [
        {
          "internalType": "uint256",
          "name": "tokenId",
          "type": "uint256"
        }
      ],
      "name": "ERC721NonexistentToken",
      "type": "error"
    },
    {
      "inputs": [],
      "name": "ReentrancyGuardReentrantCall",
      "type": "error"
    },
    {
      "anonymous": false,
      "inputs": [
        {
          "indexed": true,
          "internalType": "address",
          "name": "owner",
          "type": "address"
        },
        {
          "indexed": true,
          "internalType": "address",
          "name": "approved",
          "type": "address"
        },
        {
          "indexed": true,
          "internalType": "uint256",
          "name": "tokenId",
          "type": "uint256"
        }
      ],
      "name": "Approval",
      "type": "event"
    },
    {
      "anonymous": false,
      "inputs": [
        {
          "indexed": true,
          "internalType": "address",
          "name": "owner",
          "type": "address"
        },
        {
          "indexed": true,
          "internalType": "address",
          "name": "operator",
          "type": "address"
        },
        {
          "indexed": false,
          "internalType": "bool",
          "name": "approved",
          "type": "bool"
        }
      ],
      "name": "ApprovalForAll",
      "type": "event"
    },
    {
      "anonymous": false,
      "inputs": [
        {
          "indexed": false,
          "internalType": "uint256",
          "name": "_fromTokenId",
          "type": "uint256"
        },
        {
          "indexed": false,
          "internalType": "uint256",
          "name": "_toTokenId",
          "type": "uint256"
        }
      ],
      "name": "BatchMetadataUpdate",
      "type": "event"
    },
    {
      "anonymous": false,
      "inputs": [
        {
          "indexed": false,
          "internalType": "uint256",
          "name": "_tokenId",
          "type": "uint256"
        }
      ],
      "name": "MetadataUpdate",
      "type": "event"
    },
    {
      "anonymous": false,
      "inputs": [
        {
          "indexed": true,
          "internalType": "address",
          "name": "account",
          "type": "address"
        },
        {
          "indexed": true,
          "internalType": "uint256",
          "name": "tokenId",
          "type": "uint256"
        }
      ],
      "name": "Retire",
      "type": "event"
    },
    {
      "anonymous": false,
      "inputs": [
        {
          "indexed": true,
          "internalType": "bytes32",
          "name": "role",
          "type": "bytes32"
        },
        {
          "indexed": true,
          "internalType": "bytes32",
          "name": "previousAdminRole",
          "type": "bytes32"
        },
        {
          "indexed": true,
          "internalType": "bytes32",
          "name": "newAdminRole",
          "type": "bytes32"
        }
      ],
      "name": "RoleAdminChanged",
      "type": "event"
    },
    {
      "anonymous": false,
      "inputs": [
        {
          "indexed": true,
          "internalType": "bytes32",
          "name": "role",
          "type": "bytes32"
        },
        {
          "indexed": true,
          "internalType": "address",
          "name": "account",
          "type": "address"
        },
        {
          "indexed": true,
          "internalType": "address",
          "name": "sender",
          "type": "address"
        }
      ],
      "name": "RoleGranted",
      "type": "event"
    },
    {
      "anonymous": false,
      "inputs": [
        {
          "indexed": true,
          "internalType": "bytes32",
          "name": "role",
          "type": "bytes32"
        },
        {
          "indexed": true,
          "internalType": "address",
          "name": "account",
          "type": "address"
        },
        {
          "indexed": true,
          "internalType": "address",
          "name": "sender",
          "type": "address"
        }
      ],
      "name": "RoleRevoked",
      "type": "event"
    },
    {
      "anonymous": false,
      "inputs": [
        {
          "indexed": true,
          "internalType": "address",
          "name": "from",
          "type": "address"
        },
        {
          "indexed": true,
          "internalType": "address",
          "name": "to",
          "type": "address"
        },
        {
          "indexed": true,
          "internalType": "uint256",
          "name": "tokenId",
          "type": "uint256"
        }
      ],
      "name": "Transfer",
      "type": "event"
    },
    {
      "inputs": [],
      "name": "DEFAULT_ADMIN_ROLE",
      "outputs": [
        {
          "internalType": "bytes32",
          "name": "",
          "type": "bytes32"
        }
      ],
      "stateMutability": "view",
      "type": "function"
    },
    {
      "inputs": [],
      "name": "MINTER_ROLE",
      "outputs": [
        {
          "internalType": "bytes32",
          "name": "",
          "type": "bytes32"
        }
      ],
      "stateMutability": "view",
      "type": "function"
    },
    {
      "inputs": [
        {
          "internalType": "address",
          "name": "to",
          "type": "address"
        },
        {
          "internalType": "uint256",
          "name": "tokenId",
          "type": "uint256"
        }
      ],
      "name": "approve",
      "outputs": [],
      "stateMutability": "nonpayable",
      "type": "function"
    },
    {
      "inputs": [
        {
          "internalType": "address",
          "name": "owner",
          "type": "address"
        }
      ],
      "name": "balanceOf",
      "outputs": [
        {
          "internalType": "uint256",
          "name": "",
          "type": "uint256"
        }
      ],
      "stateMutability": "view",
      "type": "function"
    },
    {
      "inputs": [
        {
          "internalType": "uint256",
          "name": "tokenId",
          "type": "uint256"
        }
      ],
      "name": "getApproved",
      "outputs": [
        {
          "internalType": "address",
          "name": "",
          "type": "address"
        }
      ],
      "stateMutability": "view",
      "type": "function"
    },
    {
      "inputs": [],
      "name": "getBaseURI",
      "outputs": [
        {
          "internalType": "string",
          "name": "",
          "type": "string"
        }
      ],
      "stateMutability": "view",
      "type": "function"
    },
    {
      "inputs": [
        {
          "internalType": "bytes32",
          "name": "role",
          "type": "bytes32"
        }
      ],
      "name": "getRoleAdmin",
      "outputs": [
        {
          "internalType": "bytes32",
          "name": "",
          "type": "bytes32"
        }
      ],
      "stateMutability": "view",
      "type": "function"
    },
    {
      "inputs": [
        {
          "internalType": "address",
          "name": "owner",
          "type": "address"
        }
      ],
      "name": "getTokensOfOwner",
      "outputs": [
        {
          "internalType": "uint256[]",
          "name": "",
          "type": "uint256[]"
        }
      ],
      "stateMutability": "view",
      "type": "function"
    },
    {
      "inputs": [
        {
          "internalType": "bytes32",
          "name": "role",
          "type": "bytes32"
        },
        {
          "internalType": "address",
          "name": "account",
          "type": "address"
        }
      ],
      "name": "grantRole",
      "outputs": [],
      "stateMutability": "nonpayable",
      "type": "function"
    },
    {
      "inputs": [
        {
          "internalType": "bytes32",
          "name": "role",
          "type": "bytes32"
        },
        {
          "internalType": "address",
          "name": "account",
          "type": "address"
        }
      ],
      "name": "hasRole",
      "outputs": [
        {
          "internalType": "bool",
          "name": "",
          "type": "bool"
        }
      ],
      "stateMutability": "view",
      "type": "function"
    },
    {
      "inputs": [
        {
          "internalType": "address",
          "name": "owner",
          "type": "address"
        },
        {
          "internalType": "address",
          "name": "operator",
          "type": "address"
        }
      ],
      "name": "isApprovedForAll",
      "outputs": [
        {
          "internalType": "bool",
          "name": "",
          "type": "bool"
        }
      ],
      "stateMutability": "view",
      "type": "function"
    },
    {
      "inputs": [
        {
          "internalType": "address",
          "name": "to",
          "type": "address"
        },
        {
          "internalType": "string",
          "name": "tokenURI_",
          "type": "string"
        }
      ],
      "name": "mintCert",
      "outputs": [
        {
          "internalType": "uint256",
          "name": "",
          "type": "uint256"
        }
      ],
      "stateMutability": "nonpayable",
      "type": "function"
    },
    {
      "inputs": [],
      "name": "name",
      "outputs": [
        {
          "internalType": "string",
          "name": "",
          "type": "string"
        }
      ],
      "stateMutability": "view",
      "type": "function"
    },
    {
      "inputs": [
        {
          "internalType": "uint256",
          "name": "tokenId",
          "type": "uint256"
        }
      ],
      "name": "ownerOf",
      "outputs": [
        {
          "internalType": "address",
          "name": "",
          "type": "address"
        }
      ],
      "stateMutability": "view",
      "type": "function"
    },
    {
      "inputs": [
        {
          "internalType": "bytes32",
          "name": "role",
          "type": "bytes32"
        },
        {
          "internalType": "address",
          "name": "callerConfirmation",
          "type": "address"
        }
      ],
      "name": "renounceRole",
      "outputs": [],
      "stateMutability": "nonpayable",
      "type": "function"
    },
    {
      "inputs": [
        {
          "internalType": "bytes32",
          "name": "role",
          "type": "bytes32"
        },
        {
          "internalType": "address",
          "name": "account",
          "type": "address"
        }
      ],
      "name": "revokeRole",
      "outputs": [],
      "stateMutability": "nonpayable",
      "type": "function"
    },
    {
      "inputs": [
        {
          "internalType": "address",
          "name": "from",
          "type": "address"
        },
        {
          "internalType": "address",
          "name": "to",
          "type": "address"
        },
        {
          "internalType": "uint256",
          "name": "tokenId",
          "type": "uint256"
        }
      ],
      "name": "safeTransferFrom",
      "outputs": [],
      "stateMutability": "nonpayable",
      "type": "function"
    },
    {
      "inputs": [
        {
          "internalType": "address",
          "name": "from",
          "type": "address"
        },
        {
          "internalType": "address",
          "name": "to",
          "type": "address"
        },
        {
          "internalType": "uint256",
          "name": "tokenId",
          "type": "uint256"
        },
        {
          "internalType": "bytes",
          "name": "data",
          "type": "bytes"
        }
      ],
      "name": "safeTransferFrom",
      "outputs": [],
      "stateMutability": "nonpayable",
      "type": "function"
    },
    {
      "inputs": [
        {
          "internalType": "address",
          "name": "operator",
          "type": "address"
        },
        {
          "internalType": "bool",
          "name": "approved",
          "type": "bool"
        }
      ],
      "name": "setApprovalForAll",
      "outputs": [],
      "stateMutability": "nonpayable",
      "type": "function"
    },
    {
      "inputs": [
        {
          "internalType": "bytes4",
          "name": "interfaceId",
          "type": "bytes4"
        }
      ],
      "name": "supportsInterface",
      "outputs": [
        {
          "internalType": "bool",
          "name": "",
          "type": "bool"
        }
      ],
      "stateMutability": "view",
      "type": "function"
    },
    {
      "inputs": [],
      "name": "symbol",
      "outputs": [
        {
          "internalType": "string",
          "name": "",
          "type": "string"
        }
      ],
      "stateMutability": "view",
      "type": "function"
    },
    {
      "inputs": [],
      "name": "tokenId",
      "outputs": [
        {
          "internalType": "uint256",
          "name": "",
          "type": "uint256"
        }
      ],
      "stateMutability": "view",
      "type": "function"
    },
    {
      "inputs": [
        {
          "internalType": "uint256",
          "name": "tokenId",
          "type": "uint256"
        }
      ],
      "name": "tokenURI",
      "outputs": [
        {
          "internalType": "string",
          "name": "",
          "type": "string"
        }
      ],
      "stateMutability": "view",
      "type": "function"
    },
    {
      "inputs": [
        {
          "internalType": "address",
          "name": "from",
          "type": "address"
        },
        {
          "internalType": "address",
          "name": "to",
          "type": "address"
        },
        {
          "internalType": "uint256",
          "name": "_tokenId",
          "type": "uint256"
        }
      ],
      "name": "transferFrom",
      "outputs": [],
      "stateMutability": "nonpayable",
      "type": "function"
    }
  ],
  "bytecode": "0x60806040523461054a57611e9d803803806100198161054e565b92833981019060208183031261054a578051906001600160401b03821161054a570181601f8201121561054a578051906001600160401b0382116103235761006a601f8301601f191660200161054e565b928284526020838301011161054a57815f9260208093018386015e8301015260406100948161054e565b91601083526f10d85c989bdb94995d1a5c9950d95c9d60821b60208401526100bb8261054e565b600681526510d490d1549560d21b602082015283519092906001600160401b038111610323575f54600181811c91168015610540575b602082101461030557601f81116104de575b50602094601f821160011461047d579481929394955f92610472575b50508160011b915f199060031b1c1916175f555b82516001600160401b03811161032357600154600181811c91168015610468575b602082101461030557601f8111610405575b506020601f82116001146103a257819293945f92610397575b50508160011b915f199060031b1c1916176001555b6001600855331561036a57815115610337576101af33610573565b506101b9336105e9565b5081516001600160401b03811161032357600b54600181811c91168015610319575b602082101461030557601f81116102a2575b50602092601f821160011461024157928192935f92610236575b50508160011b915f199060031b1c191617600b555b600160ff19600a541617600a55516117c0908161067d8239f35b015190505f80610207565b601f19821693600b5f52805f20915f5b86811061028a5750836001959610610272575b505050811b01600b5561021c565b01515f1960f88460031b161c191690555f8080610264565b91926020600181928685015181550194019201610251565b600b5f527f0175b7a638427703f0dbe7bb9bbf987a2551717b34e79f33b5b1008d1fa01db9601f830160051c810191602084106102fb575b601f0160051c01905b8181106102f057506101ed565b5f81556001016102e3565b90915081906102da565b634e487b7160e01b5f52602260045260245ffd5b90607f16906101db565b634e487b7160e01b5f52604160045260245ffd5b5162461bcd60e51b815260206004820152600d60248201526c6261736555524920656d70747960981b6044820152606490fd5b5162461bcd60e51b8152602060048201526007602482015266061646d696e3d360cc1b6044820152606490fd5b015190505f8061017f565b601f1982169060015f52805f20915f5b8181106103ed575095836001959697106103d5575b505050811b01600155610194565b01515f1960f88460031b161c191690555f80806103c7565b9192602060018192868b0151815501940192016103b2565b60015f527fb10e2d527612073b26eecdfd717e6a320cf44b4afac2b0732d9fcbe2b7fa0cf6601f830160051c8101916020841061045e575b601f0160051c01905b8181106104535750610166565b5f8155600101610446565b909150819061043d565b90607f1690610154565b015190505f8061011f565b601f198216955f8052805f20915f5b8881106104c6575083600195969798106104ae575b505050811b015f55610133565b01515f1960f88460031b161c191690555f80806104a1565b9192602060018192868501518155019401920161048c565b5f80527f290decd9548b62a8d60345a988386fc84ba6bc95484008f6362f93160ef3e563601f830160051c81019160208410610536575b601f0160051c01905b81811061052b5750610103565b5f815560010161051e565b9091508190610515565b90607f16906100f1565b5f80fd5b6040519190601f01601f191682016001600160401b0381118382101761032357604052565b6001600160a01b0381165f9081525f516020611e5d5f395f51905f52602052604090205460ff166105e4576001600160a01b03165f8181525f516020611e5d5f395f51905f5260205260408120805460ff191660011790553391905f516020611e3d5f395f51905f528180a4600190565b505f90565b6001600160a01b0381165f9081525f516020611e7d5f395f51905f52602052604090205460ff166105e4576001600160a01b03165f8181525f516020611e7d5f395f51905f5260205260408120805460ff191660011790553391907f9f2df0fed2c77648de5860a4cc508cd0818c85b8b8a1ab4ceeef8d981c8956a6905f516020611e3d5f395f51905f529080a460019056fe6080806040526004361015610012575f80fd5b5f3560e01c90816301ffc9a714610da25750806306fdde0314610d00578063081812fc14610cc3578063095ea7b314610bd757806317d70f7c14610bba57806323b872dd14610ba3578063248a9ca314610b705780632f2ff15d14610b3257806336568abe14610aee57806342842e0e14610abf5780635de6dc5514610a0b5780636352211e146109dc57806370a082311461098b578063714c53981461097057806391d148541461092657806395d89b411461085c578063a217fddf14610842578063a22cb465146107a7578063b88d4fde1461073b578063c87b56dd14610704578063d5391393146106ca578063d547741f14610685578063e985e9c51461062c5763f2a46acc14610124575f80fd5b3461058e57604036600319011261058e5761013d610e65565b6024359067ffffffffffffffff821161058e573660238301121561058e57816004013567ffffffffffffffff811161058e57366024828501011161058e57335f9081527fa4bfd7afe708e2e87e7f0e2ad9b4d545417e0f795f57b5c5ab5d799c565a04f4602052604090205460ff16156105f5576009545f1981146102f75760010190816009556020936040516101d48682610ecb565b5f81526001600160a01b0385169485156105e257845f52600287526001600160a01b0360405f20541680151590816105ac575b875f526003895260405f2060018154019055865f526002895260405f20886001600160a01b03198254161790558688827fddf252ad1be2c89b69c2b068fc378daa952ba7f163c4a11628f55a4df523b3ef5f80a4506105995786903b610489575b505081610333575b5050815f52600d835260405f2080546801000000000000000081101561031f576001810180835581101561030b5782915f52845f200155815f52600d835260405f20545f1981019081116102f757815f52600e845260405f205580604051927f82b89ed824b293574a2cca050e6e27837b60436d911352f8dca203a9cd35241c5f80a38152f35b634e487b7160e01b5f52601160045260245ffd5b634e487b7160e01b5f52603260045260245ffd5b634e487b7160e01b5f52604160045260245ffd5b610341916024369201610f09565b815f526006845260405f209080519067ffffffffffffffff821161031f57819061036b8454610f3f565b601f811161043b575b508690601f83116001146103d8575f926103cd575b50508160011b915f199060031b1c19161790555b7ff8e1a15aba9398e019f0b49df1a4fde98ee17ae345cb5f6b5e2c27f5033e8ce783604051838152a15f80610270565b015190505f80610389565b5f8581528881209350601f198516905b8982821061042557505090846001959493921061040d575b505050811b01905561039d565b01515f1960f88460031b161c191690555f8080610400565b60018596829396860151815501950193016103e8565b909150835f52865f20601f840160051c81019188851061047f575b90601f859493920160051c01905b8181106104715750610374565b5f8155849350600101610464565b9091508190610456565b6104c19160405180938192630a85bd0160e11b83523360048401525f6024840152886044840152608060648401526084830190610e41565b03815f895af15f9181610555575b506105245784863d1561051c573d906104e782610eed565b916104f56040519384610ecb565b82523d5f8284013e5b815191826105195783633250574960e11b5f5260045260245ffd5b01fd5b6060906104fe565b6001600160e01b03191663757a42ff60e11b01610542575f85610268565b83633250574960e11b5f5260045260245ffd5b9091508681813d8311610592575b61056d8183610ecb565b8101031261058e57516001600160e01b03198116810361058e57905f6104cf565b5f80fd5b503d610563565b6339e3563760e11b5f525f60045260245ffd5b6105cb875f52600460205260405f206001600160a01b03198154169055565b805f526003895260405f205f198154019055610207565b633250574960e11b5f525f60045260245ffd5b63e2517d3f60e01b5f52336004527f9f2df0fed2c77648de5860a4cc508cd0818c85b8b8a1ab4ceeef8d981c8956a660245260445ffd5b3461058e57604036600319011261058e57610645610e65565b6001600160a01b03610655610e7b565b91165f5260056020526001600160a01b0360405f2091165f52602052602060ff60405f2054166040519015158152f35b3461058e57604036600319011261058e576106c86004356106a4610e7b565b906106c36106be825f526007602052600160405f20015490565b611500565b6115d0565b005b3461058e575f36600319011261058e5760206040517f9f2df0fed2c77648de5860a4cc508cd0818c85b8b8a1ab4ceeef8d981c8956a68152f35b3461058e57602036600319011261058e5761073761072360043561122f565b604051918291602083526020830190610e41565b0390f35b3461058e57608036600319011261058e57610754610e65565b61075c610e7b565b906044356064359267ffffffffffffffff841161058e573660238501121561058e576107956106c8943690602481600401359101610f09565b926107a183838361102e565b33611655565b3461058e57604036600319011261058e576107c0610e65565b6024359081151580920361058e576001600160a01b031690811561082f57335f52600560205260405f20825f5260205260405f2060ff1981541660ff83161790556040519081527f17307eab39ab6107e8899845ad3d59bd9653f200f220920489ca2b5937696c3160203392a3005b50630b61174360e31b5f5260045260245ffd5b3461058e575f36600319011261058e5760206040515f8152f35b3461058e575f36600319011261058e576040515f60015461087c81610f3f565b808452906001811690811561090257506001146108a4575b6107378361072381850382610ecb565b60015f9081527fb10e2d527612073b26eecdfd717e6a320cf44b4afac2b0732d9fcbe2b7fa0cf6939250905b8082106108e857509091508101602001610723610894565b9192600181602092548385880101520191019092916108d0565b60ff191660208086019190915291151560051b840190910191506107239050610894565b3461058e57604036600319011261058e5761093f610e7b565b6004355f5260076020526001600160a01b0360405f2091165f52602052602060ff60405f2054166040519015158152f35b3461058e575f36600319011261058e57610737610723610f77565b3461058e57602036600319011261058e576001600160a01b036109ac610e65565b1680156109c9575f526003602052602060405f2054604051908152f35b6322718ad960e21b5f525f60045260245ffd5b3461058e57602036600319011261058e5760206109fa6004356114cd565b6001600160a01b0360405191168152f35b3461058e57602036600319011261058e576001600160a01b03610a2c610e65565b165f52600d60205260405f20604051806020835491828152019081935f5260205f20905f5b818110610aa95750505081610a67910382610ecb565b604051918291602083019060208452518091526040830191905f5b818110610a90575050500390f35b8251845285945060209384019390920191600101610a82565b8254845260209093019260019283019201610a51565b3461058e576106c8610ad036610e91565b9060405192610ae0602085610ecb565b5f84526107a183838361102e565b3461058e57604036600319011261058e57610b07610e7b565b336001600160a01b03821603610b23576106c8906004356115d0565b63334bd91960e11b5f5260045ffd5b3461058e57604036600319011261058e576106c8600435610b51610e7b565b90610b6b6106be825f526007602052600160405f20015490565b611541565b3461058e57602036600319011261058e576020610b9b6004355f526007602052600160405f20015490565b604051908152f35b3461058e576106c8610bb436610e91565b9161102e565b3461058e575f36600319011261058e576020600954604051908152f35b3461058e57604036600319011261058e57610bf0610e65565b602435610bfc816114cd565b33151580610cb0575b80610c7d575b610c6a5781906001600160a01b0380851691167f8c5be1e5ebec7d5bd14f71427d1e84f3dd0314c0f7b2291e5b200ac8c7c3b9255f80a45f5260046020526001600160a01b0360405f2091166001600160a01b03198254161790555f80f35b63a9fbf51f60e01b5f523360045260245ffd5b506001600160a01b0381165f52600560205260405f206001600160a01b0333165f5260205260ff60405f20541615610c0b565b50336001600160a01b0382161415610c05565b3461058e57602036600319011261058e57600435610ce0816114cd565b505f52600460205260206001600160a01b0360405f205416604051908152f35b3461058e575f36600319011261058e576040515f5f54610d1f81610f3f565b80845290600181169081156109025750600114610d46576107378361072381850382610ecb565b5f8080527f290decd9548b62a8d60345a988386fc84ba6bc95484008f6362f93160ef3e563939250905b808210610d8857509091508101602001610723610894565b919260018160209254838588010152019101909291610d70565b3461058e57602036600319011261058e576004359063ffffffff60e01b821680920361058e57602091637965db0b60e01b8114908115610de4575b5015158152f35b632483248360e11b811491508115610dfe575b5083610ddd565b6380ac58cd60e01b811491508115610e30575b8115610e1f575b5083610df7565b6301ffc9a760e01b14905083610e18565b635b5e139f60e01b81149150610e11565b805180835260209291819084018484015e5f828201840152601f01601f1916010190565b600435906001600160a01b038216820361058e57565b602435906001600160a01b038216820361058e57565b606090600319011261058e576004356001600160a01b038116810361058e57906024356001600160a01b038116810361058e579060443590565b90601f8019910116810190811067ffffffffffffffff82111761031f57604052565b67ffffffffffffffff811161031f57601f01601f191660200190565b929192610f1582610eed565b91610f236040519384610ecb565b82948184528183011161058e578281602093845f960137010152565b90600182811c92168015610f6d575b6020831014610f5957565b634e487b7160e01b5f52602260045260245ffd5b91607f1691610f4e565b604051905f82600b5491610f8a83610f3f565b808352926001811690811561100f5750600114610fb0575b610fae92500383610ecb565b565b50600b5f90815290917f0175b7a638427703f0dbe7bb9bbf987a2551717b34e79f33b5b1008d1fa01db95b818310610ff3575050906020610fae92820101610fa2565b6020919350806001915483858901015201910190918492610fdb565b60209250610fae94915060ff191682840152151560051b820101610fa2565b919060ff600c54166111c0576001600160a01b031680156105e257815f5260026020526001600160a01b0360405f20541692823315159283611124575b6001600160a01b039350856110ed575b805f52600360205260405f2060018154019055815f52600260205260405f20818519825416179055857fddf252ad1be2c89b69c2b068fc378daa952ba7f163c4a11628f55a4df523b3ef5f80a4168083036110d557505050565b6364283d7b60e01b5f5260045260245260445260645ffd5b61110c825f52600460205260405f206001600160a01b03198154169055565b855f52600360205260405f205f19815401905561107b565b9192905080611169575b1561113b5782829161106b565b828461115357637e27328960e01b5f5260045260245ffd5b63177e802f60e01b5f523360045260245260445ffd5b503384148015611197575b8061112e5750825f526004602052336001600160a01b0360405f2054161461112e565b50835f52600560205260405f206001600160a01b0333165f5260205260ff60405f205416611174565b60405162461bcd60e51b81526020600482015260096024820152686e6f20726573616c6560b81b6044820152606490fd5b610fae906020808095946040519684889551918291018487015e8401908282015f8152815193849201905e01015f815203601f198101845283610ecb565b611238816114cd565b50805f52600660205260405f2060405190815f82549261125784610f3f565b80845293600181169081156114ab5750600114611467575b5061127c92500382610ecb565b611284610f77565b80511561146157815161145757505061129c816114cd565b506112a5610f77565b8051909190156114415780815f927a184f03e93ff9f4daa797ed6e38ed64bf6a1f010000000000000000811015611416575b50806d04ee2d6d415b85acef8100000000600a9210156113fb575b662386f26fc100008110156113e7575b6305f5e1008110156113d6575b6127108110156113c7575b60648110156113b9575b10156113ae575b600a6021600184019361133d85610eed565b9461134b6040519687610ecb565b80865261135a601f1991610eed565b013660208701378401015b5f1901917f30313233343536373839616263646566000000000000000000000000000000008282061a8353049081156113a057600a90611365565b50506113ab916111f1565b90565b60019091019061132b565b606460029104930192611324565b6127106004910493019261131a565b6305f5e1006008910493019261130f565b662386f26fc1000060109104930192611302565b6d04ee2d6d415b85acef8100000000602091049301926112f2565b604093507a184f03e93ff9f4daa797ed6e38ed64bf6a1f01000000000000000090049050600a6112d7565b5050604051611451602082610ecb565b5f815290565b6113ab92506111f1565b50905090565b90505f9291925260205f20905f915b81831061148f57505090602061127c928201015f61126f565b6020919350806001915483858801015201910190918392611476565b90506020925061127c94915060ff191682840152151560051b8201015f61126f565b805f5260026020526001600160a01b0360405f2054169081156114ee575090565b637e27328960e01b5f5260045260245ffd5b805f52600760205260405f206001600160a01b0333165f5260205260ff60405f2054161561152b5750565b63e2517d3f60e01b5f523360045260245260445ffd5b805f52600760205260405f206001600160a01b0383165f5260205260ff60405f205416155f146115ca57805f52600760205260405f206001600160a01b0383165f5260205260405f20600160ff198254161790556001600160a01b03339216907f2f8788117e7eff1d82e926ec794901d17c78024a50270940304540a733656f0d5f80a4600190565b50505f90565b805f52600760205260405f206001600160a01b0383165f5260205260ff60405f2054165f146115ca57805f52600760205260405f206001600160a01b0383165f5260205260405f2060ff1981541690556001600160a01b03339216907ff6391f5c32d9c69d2a47ea670b442974b53935d1edc7fd64eb21e047a839171b5f80a4600190565b93909293823b611667575b5050505050565b6116ae6001600160a01b0392836020951696846040519788968796630a85bd0160e11b88521660048701521660248501526044840152608060648401526084830190610e41565b03815f865af15f9181611745575b5061171157503d1561170a573d6116d281610eed565b906116e06040519283610ecb565b81523d5f602083013e5b805190816117055782633250574960e11b5f5260045260245ffd5b602001fd5b60606116ea565b6001600160e01b03191663757a42ff60e11b0161173357505f80808080611660565b633250574960e11b5f5260045260245ffd5b9091506020813d602011611782575b8161176160209383610ecb565b8101031261058e57516001600160e01b03198116810361058e57905f6116bc565b3d915061175456fea26469706673582212201ce62ab44bee694091c67e46805dd1d0e715cce262e7ae0764441055881c84d664736f6c634300081c00332f8788117e7eff1d82e926ec794901d17c78024a50270940304540a733656f0d6d5257204ebe7d88fd91ae87941cb2dd9d8062b64ae5a2bd2d28ec40b9fbf6dfa4bfd7afe708e2e87e7f0e2ad9b4d545417e0f795f57b5c5ab5d799c565a04f4",
  "linkReferences": {},
  "deployedLinkReferences": {},
  "immutableReferences": {},
  "inputSourceName": "project/contracts/CarbonRetireNFT.sol",
  "buildInfoId": "solc-0_8_28-36c21aff262d0c0dd631157a704e3ece0ac88214"
}