{
  "_format": "hh3-artifact-1",
  "contractName": "CarbonRetireNFT",
  "sourceName": "contracts/CarbonRetireNFT.sol",
  "abi": [
    {
      "inputs": [
        {
          "internalType": "string",
          "name": "baseURI_",
          "type": "string"
        }
      ],
      "stateMutability": "nonpayable",
      "type": "constructor"
    },
    {
      "inputs": [],
      "name": "AccessControlBadConfirmation",
      "type": "error"
    },
    {
      "inputs": [
        {
          "internalType": "address",
          "name": "account",
          "type": "address"
        },
        {
          "internalType": "bytes32",
          "name": "neededRole",
          "type": "bytes32"
        }
      ],
      "name": "AccessControlUnauthorizedAccount",
      "type": "error"
    },
    {
      "inputs": [
        {
          "internalType": "address",
          "name": "sender",
          "type": "address"
        },
        {
          "internalType": "uint256",
          "name": "tokenId",
          "type": "uint256"
        },
        {
          "internalType": "address",
          "name": "owner",
          "type": "address"
        }
      ],
      "name": "ERC721IncorrectOwner",
      "type": "error"
    },
    {
      "inputs": [
        {
          "internalType": "address",
          "name": "operator",
          "type": "address"
        },
        {
          "internalType": "uint256",
          "name": "tokenId",
          "type": "uint256"
        }
      ],
      "name": "ERC721InsufficientApproval",
      "type": "error"
    },
    {
      "inputs": [
        {
          "internalType": "address",
          "name": "approver",
          "type": "address"
        }
      ],
      "name": "ERC721InvalidApprover",
      "type": "error"
    },
    {
      "inputs": [
        {
          "internalType": "address",
          "name": "operator",
          "type": "address"
        }
      ],
      "name": "ERC721InvalidOperator",
      "type": "error"
    },
    {
      "inputs": [
        {
          "internalType": "address",
          "name": "owner",
          "type": "address"
        }
      ],
      "name": "ERC721InvalidOwner",
      "type": "error"
    },
    {
      "inputs": [
        {
          "internalType": "address",
          "name": "receiver",
          "type": "address"
        }
      ],
      "name": "ERC721InvalidReceiver",
      "type": "error"
    },
    {
      "inputs": [
        {
          "internalType": "address",
          "name": "sender",
          "type": "address"
        }
      ],
      "name": "ERC721InvalidSender",
      "type": "error"
    },
    {
      "inputs": [
        {
          "internalType": "uint256",
          "name": "tokenId",
          "type": "uint256"
        }
      ],
      "name": "ERC721NonexistentToken",
      "type": "error"
    },
    {
      "inputs": [],
      "name": "ReentrancyGuardReentrantCall",
      "type": "error"
    },
    {
      "anonymous": false,
      "inputs": [
        {
          "indexed": true,
          "internalType": "address",
          "name": "owner",
          "type": "address"
        },
        {
          "indexed": true,
          "internalType": "address",
          "name": "approved",
          "type": "address"
        },
        {
          "indexed": true,
          "internalType": "uint256",
          "name": "tokenId",
          "type": "uint256"
        }
      ],
      "name": "Approval",
      "type": "event"
    },
    {
      "anonymous": false,
      "inputs": [
        {
          "indexed": true,
          "internalType": "address",
          "name": "owner",
          "type": "address"
        },
        {
          "indexed": true,
          "internalType": "address",
          "name": "operator",
          "type": "address"
        },
        {
          "indexed": false,
          "internalType": "bool",
          "name": "approved",
          "type": "bool"
        }
      ],
      "name": "ApprovalForAll",
      "type": "event"
    },
    {
      "anonymous": false,
      "inputs": [
        {
          "indexed": false,
          "internalType": "uint256",
          "name": "_fromTokenId",
          "type": "uint256"
        },
        {
          "indexed": false,
          "internalType": "uint256",
          "name": "_toTokenId",
          "type": "uint256"
        }
      ],
      "name": "BatchMetadataUpdate",
      "type": "event"
    },
    {
      "anonymous": false,
      "inputs": [
        {
          "indexed": false,
          "internalType": "uint256",
          "name": "_tokenId",
          "type": "uint256"
        }
      ],
      "name": "MetadataUpdate",
      "type": "event"
    },
    {
      "anonymous": false,
      "inputs": [
        {
          "indexed": true,
          "internalType": "address",
          "name": "account",
          "type": "address"
        },
        {
          "indexed": true,
          "internalType": "uint256",
          "name": "tokenId",
          "type": "uint256"
        }
      ],
      "name": "Retire",
      "type": "event"
    },
    {
      "anonymous": false,
      "inputs": [
        {
          "indexed": true,
          "internalType": "bytes32",
          "name": "role",
          "type": "bytes32"
        },
        {
          "indexed": true,
          "internalType": "bytes32",
          "name": "previousAdminRole",
          "type": "bytes32"
        },
        {
          "indexed": true,
          "internalType": "bytes32",
          "name": "newAdminRole",
          "type": "bytes32"
        }
      ],
      "name": "RoleAdminChanged",
      "type": "event"
    },
    {
      "anonymous": false,
      "inputs": [
        {
          "indexed": true,
          "internalType": "bytes32",
          "name": "role",
          "type": "bytes32"
        },
        {
          "indexed": true,
          "internalType": "address",
          "name": "account",
          "type": "address"
        },
        {
          "indexed": true,
          "internalType": "address",
          "name": "sender",
          "type": "address"
        }
      ],
      "name": "RoleGranted",
      "type": "event"
    },
    {
      "anonymous": false,
      "inputs": [
        {
          "indexed": true,
          "internalType": "bytes32",
          "name": "role",
          "type": "bytes32"
        },
        {
          "indexed": true,
          "internalType": "address",
          "name": "account",
          "type": "address"
        },
        {
          "indexed": true,
          "internalType": "address",
          "name": "sender",
          "type": "address"
        }
      ],
      "name": "RoleRevoked",
      "type": "event"
    },
    {
      "anonymous": false,
      "inputs": [
        {
          "indexed": true,
          "internalType": "address",
          "name": "from",
          "type": "address"
        },
        {
          "indexed": true,
          "internalType": "address",
          "name": "to",
          "type": "address"
        },
        {
          "indexed": true,
          "internalType": "uint256",
          "name": "tokenId",
          "type": "uint256"
        }
      ],
      "name": "Transfer",
      "type": "event"
    },
    {
      "inputs": [],
      "name": "DEFAULT_ADMIN_ROLE",
      "outputs": [
        {
          "internalType": "bytes32",
          "name": "",
          "type": "bytes32"
        }
      ],
      "stateMutability": "view",
      "type": "function"
    },
    {
      "inputs": [],
      "name": "MINTER_ROLE",
      "outputs": [
        {
          "internalType": "bytes32",
          "name": "",
          "type": "bytes32"
        }
      ],
      "stateMutability": "view",
      "type": "function"
    },
    {
      "inputs": [
        {
          "internalType": "address",
          "name": "to",
          "type": "address"
        },
        {
          "internalType": "uint256",
          "name": "tokenId",
          "type": "uint256"
        }
      ],
      "name": "approve",
      "outputs": [],
      "stateMutability": "nonpayable",
      "type": "function"
    },
    {
      "inputs": [
        {
          "internalType": "address",
          "name": "owner",
          "type": "address"
        }
      ],
      "name": "balanceOf",
      "outputs": [
        {
          "internalType": "uint256",
          "name": "",
          "type": "uint256"
        }
      ],
      "stateMutability": "view",
      "type": "function"
    },
    {
      "inputs": [
        {
          "internalType": "uint256",
          "name": "tokenId",
          "type": "uint256"
        }
      ],
      "name": "getApproved",
      "outputs": [
        {
          "internalType": "address",
          "name": "",
          "type": "address"
        }
      ],
      "stateMutability": "view",
      "type": "function"
    },
    {
      "inputs": [],
      "name": "getBaseURI",
      "outputs": [
        {
          "internalType": "string",
          "name": "",
          "type": "string"
        }
      ],
      "stateMutability": "view",
      "type": "function"
    },
    {
      "inputs": [
        {
          "internalType": "bytes32",
          "name": "role",
          "type": "bytes32"
        }
      ],
      "name": "getRoleAdmin",
      "outputs": [
        {
          "internalType": "bytes32",
          "name": "",
          "type": "bytes32"
        }
      ],
      "stateMutability": "view",
      "type": "function"
    },
    {
      "inputs": [
        {
          "internalType": "address",
          "name": "owner",
          "type": "address"
        }
      ],
      "name": "getTokensOfOwner",
      "outputs": [
        {
          "internalType": "uint256[]",
          "name": "",
          "type": "uint256[]"
        }
      ],
      "stateMutability": "view",
      "type": "function"
    },
    {
      "inputs": [
        {
          "internalType": "bytes32",
          "name": "role",
          "type": "bytes32"
        },
        {
          "internalType": "address",
          "name": "account",
          "type": "address"
        }
      ],
      "name": "grantRole",
      "outputs": [],
      "stateMutability": "nonpayable",
      "type": "function"
    },
    {
      "inputs": [
        {
          "internalType": "bytes32",
          "name": "role",
          "type": "bytes32"
        },
        {
          "internalType": "address",
          "name": "account",
          "type": "address"
        }
      ],
      "name": "hasRole",
      "outputs": [
        {
          "internalType": "bool",
          "name": "",
          "type": "bool"
        }
      ],
      "stateMutability": "view",
      "type": "function"
    },
    {
      "inputs": [
        {
          "internalType": "address",
          "name": "owner",
          "type": "address"
        },
        {
          "internalType": "address",
          "name": "operator",
          "type": "address"
        }
      ],
      "name": "isApprovedForAll",
      "outputs": [
        {
          "internalType": "bool",
          "name": "",
          "type": "bool"
        }
      ],
      "stateMutability": "view",
      "type": "function"
    },
    {
      "inputs": [
        {
          "internalType": "address",
          "name": "to",
          "type": "address"
        },
        {
          "internalType": "string",
          "name": "tokenURI_",
          "type": "string"
        }
      ],
      "name": "mintCert",
      "outputs": [
        {
          "internalType": "uint256",
          "name": "",
          "type": "uint256"
        }
      ],
      "stateMutability": "nonpayable",
      "type": "function"
    },
    {
      "inputs": [],
      "name": "name",
      "outputs": [
        {
          "internalType": "string",
          "name": "",
          "type": "string"
        }
      ],
      "stateMutability": "view",
      "type": "function"
    },
    {
      "inputs": [
        {
          "internalType": "uint256",
          "name": "tokenId",
          "type": "uint256"
        }
      ],
      "name": "ownerOf",
      "outputs": [
        {
          "internalType": "address",
          "name": "",
          "type": "address"
        }
      ],
      "stateMutability": "view",
      "type": "function"
    },
    {
      "inputs": [
        {
          "internalType": "bytes32",
          "name": "role",
          "type": "bytes32"
        },
        {
          "internalType": "address",
          "name": "callerConfirmation",
          "type": "address"
        }
      ],
      "name": "renounceRole",
      "outputs": [],
      "stateMutability": "nonpayable",
      "type": "function"
    },
    {
      "inputs": [
        {
          "internalType": "bytes32",
          "name": "role",
          "type": "bytes32"
        },
        {
          "internalType": "address",
          "name": "account",
          "type": "address"
        }
      ],
      "name": "revokeRole",
      "outputs": [],
      "stateMutability": "nonpayable",
      "type": "function"
    },
    {
      "inputs": [
        {
          "internalType": "address",
          "name": "from",
          "type": "address"
        },
        {
          "internalType": "address",
          "name": "to",
          "type": "address"
        },
        {
          "internalType": "uint256",
          "name": "tokenId",
          "type": "uint256"
        }
      ],
      "name": "safeTransferFrom",
      "outputs": [],
      "stateMutability": "nonpayable",
      "type": "function"
    },
    {
      "inputs": [
        {
          "internalType": "address",
          "name": "from",
          "type": "address"
        },
        {
          "internalType": "address",
          "name": "to",
          "type": "address"
        },
        {
          "internalType": "uint256",
          "name": "tokenId",
          "type": "uint256"
        },
        {
          "internalType": "bytes",
          "name": "data",
          "type": "bytes"
        }
      ],
      "name": "safeTransferFrom",
      "outputs": [],
      "stateMutability": "nonpayable",
      "type": "function"
    },
    {
      "inputs": [
        {
          "internalType": "address",
          "name": "operator",
          "type": "address"
        },
        {
          "internalType": "bool",
          "name": "approved",
          "type": "bool"
        }
      ],
      "name": "setApprovalForAll",
      "outputs": [],
      "stateMutability": "nonpayable",
      "type": "function"
    },
    {
      "inputs": [
        {
          "internalType": "bytes4",
          "name": "interfaceId",
          "type": "bytes4"
        }
      ],
      "name": "supportsInterface",
      "outputs": [
        {
          "internalType": "bool",
          "name": "",
          "type": "bool"
        }
      ],
      "stateMutability": "view",
      "type": "function"
    },
    {
      "inputs": [],
      "name": "symbol",
      "outputs": [
        {
          "internalType": "string",
          "name": "",
          "type": "string"
        }
      ],
      "stateMutability": "view",
      "type": "function"
    },
    {
      "inputs": [],
      "name": "tokenId",
      "outputs": [
        {
          "internalType": "uint256",
          "name": "",
          "type": "uint256"
        }
      ],
      "stateMutability": "view",
      "type": "function"
    },
    {
      "inputs": [
        {
          "internalType": "uint256",
          "name": "tokenId",
          "type": "uint256"
        }
      ],
      "name": "tokenURI",
      "outputs": [
        {
          "internalType": "string",
          "name": "",
          "type": "string"
        }
      ],
      "stateMutability": "view",
      "type": "function"
    },
    {
      "inputs": [],
      "name": "totalMinted",
      "outputs": [
        {
          "internalType": "uint256",
          "name": "",
          "type": "uint256"
        }
      ],
      "stateMutability": "view",
      "type": "function"
    },
    {
      "inputs": [
        {
          "internalType": "address",
          "name": "from",
          "type": "address"
        },
        {
          "internalType": "address",
          "name": "to",
          "type": "address"
        },
        {
          "internalType": "uint256",
          "name": "_tokenId",
          "type": "uint256"
        }
      ],
      "name": "transferFrom",
      "outputs": [],
      "stateMutability": "nonpayable",
      "type": "function"
    }
  ],
  "bytecode": "0x60806040523461054a57611f32803803806100198161054e565b92833981019060208183031261054a578051906001600160401b03821161054a570181601f8201121561054a578051906001600160401b0382116103235761006a601f8301601f191660200161054e565b928284526020838301011161054a57815f9260208093018386015e8301015260406100948161054e565b91601083526f10d85c989bdb94995d1a5c9950d95c9d60821b60208401526100bb8261054e565b600681526510d490d1549560d21b602082015283519092906001600160401b038111610323575f54600181811c91168015610540575b602082101461030557601f81116104de575b50602094601f821160011461047d579481929394955f92610472575b50508160011b915f199060031b1c1916175f555b82516001600160401b03811161032357600154600181811c91168015610468575b602082101461030557601f8111610405575b506020601f82116001146103a257819293945f92610397575b50508160011b915f199060031b1c1916176001555b6001600855331561036a57815115610337576101af33610573565b506101b9336105e9565b5081516001600160401b03811161032357600b54600181811c91168015610319575b602082101461030557601f81116102a2575b50602092601f821160011461024157928192935f92610236575b50508160011b915f199060031b1c191617600b555b600160ff19600a541617600a5551611855908161067d8239f35b015190505f80610207565b601f19821693600b5f52805f20915f5b86811061028a5750836001959610610272575b505050811b01600b5561021c565b01515f1960f88460031b161c191690555f8080610264565b91926020600181928685015181550194019201610251565b600b5f527f0175b7a638427703f0dbe7bb9bbf987a2551717b34e79f33b5b1008d1fa01db9601f830160051c810191602084106102fb575b601f0160051c01905b8181106102f057506101ed565b5f81556001016102e3565b90915081906102da565b634e487b7160e01b5f52602260045260245ffd5b90607f16906101db565b634e487b7160e01b5f52604160045260245ffd5b5162461bcd60e51b815260206004820152600d60248201526c6261736555524920656d70747960981b6044820152606490fd5b5162461bcd60e51b8152602060048201526007602482015266061646d696e3d360cc1b6044820152606490fd5b015190505f8061017f565b601f1982169060015f52805f20915f5b8181106103ed575095836001959697106103d5575b505050811b01600155610194565b01515f1960f88460031b161c191690555f80806103c7565b9192602060018192868b0151815501940192016103b2565b60015f527fb10e2d527612073b26eecdfd717e6a320cf44b4afac2b0732d9fcbe2b7fa0cf6601f830160051c8101916020841061045e575b601f0160051c01905b8181106104535750610166565b5f8155600101610446565b909150819061043d565b90607f1690610154565b015190505f8061011f565b601f198216955f8052805f20915f5b8881106104c6575083600195969798106104ae575b505050811b015f55610133565b01515f1960f88460031b161c191690555f80806104a1565b9192602060018192868501518155019401920161048c565b5f80527f290decd9548b62a8d60345a988386fc84ba6bc95484008f6362f93160ef3e563601f830160051c81019160208410610536575b601f0160051c01905b81811061052b5750610103565b5f815560010161051e565b9091508190610515565b90607f16906100f1565b5f80fd5b6040519190601f01601f191682016001600160401b0381118382101761032357604052565b6001600160a01b0381165f9081525f516020611ef25f395f51905f52602052604090205460ff166105e4576001600160a01b03165f8181525f516020611ef25f395f51905f5260205260408120805460ff191660011790553391905f516020611ed25f395f51905f528180a4600190565b505f90565b6001600160a01b0381165f9081525f516020611f125f395f51905f52602052604090205460ff166105e4576001600160a01b03165f8181525f516020611f125f395f51905f5260205260408120805460ff191660011790553391907f9f2df0fed2c77648de5860a4cc508cd0818c85b8b8a1ab4ceeef8d981c8956a6905f516020611ed25f395f51905f529080a460019056fe6080806040526004361015610012575f80fd5b5f3560e01c90816301ffc9a714610e375750806306fdde0314610d95578063081812fc14610d58578063095ea7b314610c6c57806317d70f7c146107b257806323b872dd14610c55578063248a9ca314610c225780632f2ff15d14610be457806336568abe14610ba057806342842e0e14610b715780635de6dc5514610abd5780636352211e14610a8e57806370a0823114610a3d578063714c53981461099857806391d148541461094e57806395d89b4114610884578063a217fddf1461086a578063a22cb465146107cf578063a2309ff8146107b2578063b88d4fde14610746578063c87b56dd1461070f578063d5391393146106d5578063d547741f14610690578063e985e9c5146106375763f2a46acc1461012f575f80fd5b3461059957604036600319011261059957610148610efa565b6024359067ffffffffffffffff8211610599573660238301121561059957816004013567ffffffffffffffff811161059957366024828501011161059957335f9081527fa4bfd7afe708e2e87e7f0e2ad9b4d545417e0f795f57b5c5ab5d799c565a04f4602052604090205460ff1615610600576009545f1981146103025760010190816009556020936040516101df8682610f60565b5f81526001600160a01b0385169485156105ed57845f52600287526001600160a01b0360405f20541680151590816105b7575b875f526003895260405f2060018154019055865f526002895260405f20886001600160a01b03198254161790558688827fddf252ad1be2c89b69c2b068fc378daa952ba7f163c4a11628f55a4df523b3ef5f80a4506105a45786903b610494575b50508161033e575b5050815f52600d835260405f2080546801000000000000000081101561032a57600181018083558110156103165782915f52845f200155815f52600d835260405f20545f19810190811161030257815f52600e845260405f205580604051927f82b89ed824b293574a2cca050e6e27837b60436d911352f8dca203a9cd35241c5f80a38152f35b634e487b7160e01b5f52601160045260245ffd5b634e487b7160e01b5f52603260045260245ffd5b634e487b7160e01b5f52604160045260245ffd5b61034c916024369201610f9e565b815f526006845260405f209080519067ffffffffffffffff821161032a5781906103768454610fd4565b601f8111610446575b508690601f83116001146103e3575f926103d8575b50508160011b915f199060031b1c19161790555b7ff8e1a15aba9398e019f0b49df1a4fde98ee17ae345cb5f6b5e2c27f5033e8ce783604051838152a15f8061027b565b015190505f80610394565b5f8581528881209350601f198516905b89828210610430575050908460019594939210610418575b505050811b0190556103a8565b01515f1960f88460031b161c191690555f808061040b565b60018596829396860151815501950193016103f3565b909150835f52865f20601f840160051c81019188851061048a575b90601f859493920160051c01905b81811061047c575061037f565b5f815584935060010161046f565b9091508190610461565b6104cc9160405180938192630a85bd0160e11b83523360048401525f6024840152886044840152608060648401526084830190610ed6565b03815f895af15f9181610560575b5061052f5784863d15610527573d906104f282610f82565b916105006040519384610f60565b82523d5f8284013e5b815191826105245783633250574960e11b5f5260045260245ffd5b01fd5b606090610509565b6001600160e01b03191663757a42ff60e11b0161054d575f85610273565b83633250574960e11b5f5260045260245ffd5b9091508681813d831161059d575b6105788183610f60565b8101031261059957516001600160e01b03198116810361059957905f6104da565b5f80fd5b503d61056e565b6339e3563760e11b5f525f60045260245ffd5b6105d6875f52600460205260405f206001600160a01b03198154169055565b805f526003895260405f205f198154019055610212565b633250574960e11b5f525f60045260245ffd5b63e2517d3f60e01b5f52336004527f9f2df0fed2c77648de5860a4cc508cd0818c85b8b8a1ab4ceeef8d981c8956a660245260445ffd5b3461059957604036600319011261059957610650610efa565b6001600160a01b03610660610f10565b91165f5260056020526001600160a01b0360405f2091165f52602052602060ff60405f2054166040519015158152f35b34610599576040366003190112610599576106d36004356106af610f10565b906106ce6106c9825f526007602052600160405f20015490565b611595565b611665565b005b34610599575f3660031901126105995760206040517f9f2df0fed2c77648de5860a4cc508cd0818c85b8b8a1ab4ceeef8d981c8956a68152f35b346105995760203660031901126105995761074261072e6004356112c4565b604051918291602083526020830190610ed6565b0390f35b346105995760803660031901126105995761075f610efa565b610767610f10565b906044356064359267ffffffffffffffff84116105995736602385011215610599576107a06106d3943690602481600401359101610f9e565b926107ac8383836110c3565b336116ea565b34610599575f366003190112610599576020600954604051908152f35b34610599576040366003190112610599576107e8610efa565b60243590811515809203610599576001600160a01b031690811561085757335f52600560205260405f20825f5260205260405f2060ff1981541660ff83161790556040519081527f17307eab39ab6107e8899845ad3d59bd9653f200f220920489ca2b5937696c3160203392a3005b50630b61174360e31b5f5260045260245ffd5b34610599575f3660031901126105995760206040515f8152f35b34610599575f366003190112610599576040515f6001546108a481610fd4565b808452906001811690811561092a57506001146108cc575b6107428361072e81850382610f60565b60015f9081527fb10e2d527612073b26eecdfd717e6a320cf44b4afac2b0732d9fcbe2b7fa0cf6939250905b8082106109105750909150810160200161072e6108bc565b9192600181602092548385880101520191019092916108f8565b60ff191660208086019190915291151560051b8401909101915061072e90506108bc565b3461059957604036600319011261059957610967610f10565b6004355f5260076020526001600160a01b0360405f2091165f52602052602060ff60405f2054166040519015158152f35b34610599575f366003190112610599576040515f600b546109b881610fd4565b808452906001811690811561092a57506001146109df576107428361072e81850382610f60565b600b5f9081527f0175b7a638427703f0dbe7bb9bbf987a2551717b34e79f33b5b1008d1fa01db9939250905b808210610a235750909150810160200161072e6108bc565b919260018160209254838588010152019101909291610a0b565b34610599576020366003190112610599576001600160a01b03610a5e610efa565b168015610a7b575f526003602052602060405f2054604051908152f35b6322718ad960e21b5f525f60045260245ffd5b34610599576020366003190112610599576020610aac600435611562565b6001600160a01b0360405191168152f35b34610599576020366003190112610599576001600160a01b03610ade610efa565b165f52600d60205260405f20604051806020835491828152019081935f5260205f20905f5b818110610b5b5750505081610b19910382610f60565b604051918291602083019060208452518091526040830191905f5b818110610b42575050500390f35b8251845285945060209384019390920191600101610b34565b8254845260209093019260019283019201610b03565b34610599576106d3610b8236610f26565b9060405192610b92602085610f60565b5f84526107ac8383836110c3565b3461059957604036600319011261059957610bb9610f10565b336001600160a01b03821603610bd5576106d390600435611665565b63334bd91960e11b5f5260045ffd5b34610599576040366003190112610599576106d3600435610c03610f10565b90610c1d6106c9825f526007602052600160405f20015490565b6115d6565b34610599576020366003190112610599576020610c4d6004355f526007602052600160405f20015490565b604051908152f35b34610599576106d3610c6636610f26565b916110c3565b3461059957604036600319011261059957610c85610efa565b602435610c9181611562565b33151580610d45575b80610d12575b610cff5781906001600160a01b0380851691167f8c5be1e5ebec7d5bd14f71427d1e84f3dd0314c0f7b2291e5b200ac8c7c3b9255f80a45f5260046020526001600160a01b0360405f2091166001600160a01b03198254161790555f80f35b63a9fbf51f60e01b5f523360045260245ffd5b506001600160a01b0381165f52600560205260405f206001600160a01b0333165f5260205260ff60405f20541615610ca0565b50336001600160a01b0382161415610c9a565b3461059957602036600319011261059957600435610d7581611562565b505f52600460205260206001600160a01b0360405f205416604051908152f35b34610599575f366003190112610599576040515f5f54610db481610fd4565b808452906001811690811561092a5750600114610ddb576107428361072e81850382610f60565b5f8080527f290decd9548b62a8d60345a988386fc84ba6bc95484008f6362f93160ef3e563939250905b808210610e1d5750909150810160200161072e6108bc565b919260018160209254838588010152019101909291610e05565b34610599576020366003190112610599576004359063ffffffff60e01b821680920361059957602091637965db0b60e01b8114908115610e79575b5015158152f35b632483248360e11b811491508115610e93575b5083610e72565b6380ac58cd60e01b811491508115610ec5575b8115610eb4575b5083610e8c565b6301ffc9a760e01b14905083610ead565b635b5e139f60e01b81149150610ea6565b805180835260209291819084018484015e5f828201840152601f01601f1916010190565b600435906001600160a01b038216820361059957565b602435906001600160a01b038216820361059957565b6060906003190112610599576004356001600160a01b038116810361059957906024356001600160a01b0381168103610599579060443590565b90601f8019910116810190811067ffffffffffffffff82111761032a57604052565b67ffffffffffffffff811161032a57601f01601f191660200190565b929192610faa82610f82565b91610fb86040519384610f60565b829481845281830111610599578281602093845f960137010152565b90600182811c92168015611002575b6020831014610fee57565b634e487b7160e01b5f52602260045260245ffd5b91607f1691610fe3565b604051905f82600b549161101f83610fd4565b80835292600181169081156110a45750600114611045575b61104392500383610f60565b565b50600b5f90815290917f0175b7a638427703f0dbe7bb9bbf987a2551717b34e79f33b5b1008d1fa01db95b81831061108857505090602061104392820101611037565b6020919350806001915483858901015201910190918492611070565b6020925061104394915060ff191682840152151560051b820101611037565b919060ff600c5416611255576001600160a01b031680156105ed57815f5260026020526001600160a01b0360405f205416928233151592836111b9575b6001600160a01b03935085611182575b805f52600360205260405f2060018154019055815f52600260205260405f20818519825416179055857fddf252ad1be2c89b69c2b068fc378daa952ba7f163c4a11628f55a4df523b3ef5f80a41680830361116a57505050565b6364283d7b60e01b5f5260045260245260445260645ffd5b6111a1825f52600460205260405f206001600160a01b03198154169055565b855f52600360205260405f205f198154019055611110565b91929050806111fe575b156111d057828291611100565b82846111e857637e27328960e01b5f5260045260245ffd5b63177e802f60e01b5f523360045260245260445ffd5b50338414801561122c575b806111c35750825f526004602052336001600160a01b0360405f205416146111c3565b50835f52600560205260405f206001600160a01b0333165f5260205260ff60405f205416611209565b60405162461bcd60e51b81526020600482015260096024820152686e6f20726573616c6560b81b6044820152606490fd5b611043906020808095946040519684889551918291018487015e8401908282015f8152815193849201905e01015f815203601f198101845283610f60565b6112cd81611562565b50805f52600660205260405f2060405190815f8254926112ec84610fd4565b808452936001811690811561154057506001146114fc575b5061131192500382610f60565b61131961100c565b8051156114f65781516114ec57505061133181611562565b5061133a61100c565b8051909190156114d65780815f927a184f03e93ff9f4daa797ed6e38ed64bf6a1f0100000000000000008110156114ab575b50806d04ee2d6d415b85acef8100000000600a921015611490575b662386f26fc1000081101561147c575b6305f5e10081101561146b575b61271081101561145c575b606481101561144e575b1015611443575b600a602160018401936113d285610f82565b946113e06040519687610f60565b8086526113ef601f1991610f82565b013660208701378401015b5f1901917f30313233343536373839616263646566000000000000000000000000000000008282061a83530490811561143557600a906113fa565b505061144091611286565b90565b6001909101906113c0565b6064600291049301926113b9565b612710600491049301926113af565b6305f5e100600891049301926113a4565b662386f26fc1000060109104930192611397565b6d04ee2d6d415b85acef810000000060209104930192611387565b604093507a184f03e93ff9f4daa797ed6e38ed64bf6a1f01000000000000000090049050600a61136c565b50506040516114e6602082610f60565b5f815290565b6114409250611286565b50905090565b90505f9291925260205f20905f915b818310611524575050906020611311928201015f611304565b602091935080600191548385880101520191019091839261150b565b90506020925061131194915060ff191682840152151560051b8201015f611304565b805f5260026020526001600160a01b0360405f205416908115611583575090565b637e27328960e01b5f5260045260245ffd5b805f52600760205260405f206001600160a01b0333165f5260205260ff60405f205416156115c05750565b63e2517d3f60e01b5f523360045260245260445ffd5b805f52600760205260405f206001600160a01b0383165f5260205260ff60405f205416155f1461165f57805f52600760205260405f206001600160a01b0383165f5260205260405f20600160ff198254161790556001600160a01b03339216907f2f8788117e7eff1d82e926ec794901d17c78024a50270940304540a733656f0d5f80a4600190565b50505f90565b805f52600760205260405f206001600160a01b0383165f5260205260ff60405f2054165f1461165f57805f52600760205260405f206001600160a01b0383165f5260205260405f2060ff1981541690556001600160a01b03339216907ff6391f5c32d9c69d2a47ea670b442974b53935d1edc7fd64eb21e047a839171b5f80a4600190565b93909293823b6116fc575b5050505050565b6117436001600160a01b0392836020951696846040519788968796630a85bd0160e11b88521660048701521660248501526044840152608060648401526084830190610ed6565b03815f865af15f91816117da575b506117a657503d1561179f573d61176781610f82565b906117756040519283610f60565b81523d5f602083013e5b8051908161179a5782633250574960e11b5f5260045260245ffd5b602001fd5b606061177f565b6001600160e01b03191663757a42ff60e11b016117c857505f808080806116f5565b633250574960e11b5f5260045260245ffd5b9091506020813d602011611817575b816117f660209383610f60565b8101031261059957516001600160e01b03198116810361059957905f611751565b3d91506117e956fea2646970667358221220b557c75dfaff94e17f4b5815076deebbf180beb4065f9b7c0ca2a8d60c4a5c2364736f6c634300081c00332f8788117e7eff1d82e926ec794901d17c78024a50270940304540a733656f0d6d5257204ebe7d88fd91ae87941cb2dd9d8062b64ae5a2bd2d28ec40b9fbf6dfa4bfd7afe708e2e87e7f0e2ad9b4d545417e0f795f57b5c5ab5d799c565a04f4",
  "linkReferences": {},
  "deployedLinkReferences": {},
  "immutableReferences": {},
  "inputSourceName": "project/contracts/CarbonRetireNFT.sol",
  "buildInfoId": "solc-0_8_28-7691459fb7a8cf79d7b308091641917c927247c4"
}