{
  "_format": "hh3-artifact-1",
  "contractName": "CarbonProjectNFT",
  "sourceName": "contracts/CarbonProjectNFT.sol",
  "abi": [
    {
      "inputs": [],
      "stateMutability": "nonpayable",
      "type": "constructor"
    },
    {
      "inputs": [],
      "name": "AccessControlBadConfirmation",
      "type": "error"
    },
    {
      "inputs": [
        {
          "internalType": "address",
          "name": "account",
          "type": "address"
        },
        {
          "internalType": "bytes32",
          "name": "neededRole",
          "type": "bytes32"
        }
      ],
      "name": "AccessControlUnauthorizedAccount",
      "type": "error"
    },
    {
      "inputs": [
        {
          "internalType": "address",
          "name": "sender",
          "type": "address"
        },
        {
          "internalType": "uint256",
          "name": "tokenId",
          "type": "uint256"
        },
        {
          "internalType": "address",
          "name": "owner",
          "type": "address"
        }
      ],
      "name": "ERC721IncorrectOwner",
      "type": "error"
    },
    {
      "inputs": [
        {
          "internalType": "address",
          "name": "operator",
          "type": "address"
        },
        {
          "internalType": "uint256",
          "name": "tokenId",
          "type": "uint256"
        }
      ],
      "name": "ERC721InsufficientApproval",
      "type": "error"
    },
    {
      "inputs": [
        {
          "internalType": "address",
          "name": "approver",
          "type": "address"
        }
      ],
      "name": "ERC721InvalidApprover",
      "type": "error"
    },
    {
      "inputs": [
        {
          "internalType": "address",
          "name": "operator",
          "type": "address"
        }
      ],
      "name": "ERC721InvalidOperator",
      "type": "error"
    },
    {
      "inputs": [
        {
          "internalType": "address",
          "name": "owner",
          "type": "address"
        }
      ],
      "name": "ERC721InvalidOwner",
      "type": "error"
    },
    {
      "inputs": [
        {
          "internalType": "address",
          "name": "receiver",
          "type": "address"
        }
      ],
      "name": "ERC721InvalidReceiver",
      "type": "error"
    },
    {
      "inputs": [
        {
          "internalType": "address",
          "name": "sender",
          "type": "address"
        }
      ],
      "name": "ERC721InvalidSender",
      "type": "error"
    },
    {
      "inputs": [
        {
          "internalType": "uint256",
          "name": "tokenId",
          "type": "uint256"
        }
      ],
      "name": "ERC721NonexistentToken",
      "type": "error"
    },
    {
      "inputs": [],
      "name": "ReentrancyGuardReentrantCall",
      "type": "error"
    },
    {
      "anonymous": false,
      "inputs": [
        {
          "indexed": true,
          "internalType": "address",
          "name": "owner",
          "type": "address"
        },
        {
          "indexed": true,
          "internalType": "address",
          "name": "approved",
          "type": "address"
        },
        {
          "indexed": true,
          "internalType": "uint256",
          "name": "tokenId",
          "type": "uint256"
        }
      ],
      "name": "Approval",
      "type": "event"
    },
    {
      "anonymous": false,
      "inputs": [
        {
          "indexed": true,
          "internalType": "address",
          "name": "owner",
          "type": "address"
        },
        {
          "indexed": true,
          "internalType": "address",
          "name": "operator",
          "type": "address"
        },
        {
          "indexed": false,
          "internalType": "bool",
          "name": "approved",
          "type": "bool"
        }
      ],
      "name": "ApprovalForAll",
      "type": "event"
    },
    {
      "anonymous": false,
      "inputs": [
        {
          "indexed": false,
          "internalType": "uint256",
          "name": "_fromTokenId",
          "type": "uint256"
        },
        {
          "indexed": false,
          "internalType": "uint256",
          "name": "_toTokenId",
          "type": "uint256"
        }
      ],
      "name": "BatchMetadataUpdate",
      "type": "event"
    },
    {
      "anonymous": false,
      "inputs": [
        {
          "indexed": false,
          "internalType": "uint256",
          "name": "_tokenId",
          "type": "uint256"
        }
      ],
      "name": "MetadataUpdate",
      "type": "event"
    },
    {
      "anonymous": false,
      "inputs": [
        {
          "indexed": true,
          "internalType": "address",
          "name": "buyer",
          "type": "address"
        },
        {
          "indexed": true,
          "internalType": "uint256",
          "name": "tokenId",
          "type": "uint256"
        },
        {
          "indexed": false,
          "internalType": "uint256",
          "name": "retireCertId",
          "type": "uint256"
        }
      ],
      "name": "Purchased",
      "type": "event"
    },
    {
      "anonymous": false,
      "inputs": [
        {
          "indexed": true,
          "internalType": "address",
          "name": "account",
          "type": "address"
        },
        {
          "indexed": true,
          "internalType": "uint256",
          "name": "tokenId",
          "type": "uint256"
        },
        {
          "indexed": false,
          "internalType": "uint256",
          "name": "retireCertId",
          "type": "uint256"
        }
      ],
      "name": "Retired",
      "type": "event"
    },
    {
      "anonymous": false,
      "inputs": [
        {
          "indexed": true,
          "internalType": "bytes32",
          "name": "role",
          "type": "bytes32"
        },
        {
          "indexed": true,
          "internalType": "bytes32",
          "name": "previousAdminRole",
          "type": "bytes32"
        },
        {
          "indexed": true,
          "internalType": "bytes32",
          "name": "newAdminRole",
          "type": "bytes32"
        }
      ],
      "name": "RoleAdminChanged",
      "type": "event"
    },
    {
      "anonymous": false,
      "inputs": [
        {
          "indexed": true,
          "internalType": "bytes32",
          "name": "role",
          "type": "bytes32"
        },
        {
          "indexed": true,
          "internalType": "address",
          "name": "account",
          "type": "address"
        },
        {
          "indexed": true,
          "internalType": "address",
          "name": "sender",
          "type": "address"
        }
      ],
      "name": "RoleGranted",
      "type": "event"
    },
    {
      "anonymous": false,
      "inputs": [
        {
          "indexed": true,
          "internalType": "bytes32",
          "name": "role",
          "type": "bytes32"
        },
        {
          "indexed": true,
          "internalType": "address",
          "name": "account",
          "type": "address"
        },
        {
          "indexed": true,
          "internalType": "address",
          "name": "sender",
          "type": "address"
        }
      ],
      "name": "RoleRevoked",
      "type": "event"
    },
    {
      "anonymous": false,
      "inputs": [
        {
          "indexed": true,
          "internalType": "address",
          "name": "from",
          "type": "address"
        },
        {
          "indexed": true,
          "internalType": "address",
          "name": "to",
          "type": "address"
        },
        {
          "indexed": true,
          "internalType": "uint256",
          "name": "tokenId",
          "type": "uint256"
        }
      ],
      "name": "Transfer",
      "type": "event"
    },
    {
      "anonymous": false,
      "inputs": [
        {
          "indexed": true,
          "internalType": "uint256",
          "name": "projectId",
          "type": "uint256"
        },
        {
          "indexed": true,
          "internalType": "uint256",
          "name": "tokenId",
          "type": "uint256"
        },
        {
          "indexed": true,
          "internalType": "address",
          "name": "from",
          "type": "address"
        },
        {
          "indexed": false,
          "internalType": "address",
          "name": "to",
          "type": "address"
        }
      ],
      "name": "TransferTrace",
      "type": "event"
    },
    {
      "inputs": [],
      "name": "DEFAULT_ADMIN_ROLE",
      "outputs": [
        {
          "internalType": "bytes32",
          "name": "",
          "type": "bytes32"
        }
      ],
      "stateMutability": "view",
      "type": "function"
    },
    {
      "inputs": [],
      "name": "MINTER_ROLE",
      "outputs": [
        {
          "internalType": "bytes32",
          "name": "",
          "type": "bytes32"
        }
      ],
      "stateMutability": "view",
      "type": "function"
    },
    {
      "inputs": [],
      "name": "_name",
      "outputs": [
        {
          "internalType": "string",
          "name": "",
          "type": "string"
        }
      ],
      "stateMutability": "view",
      "type": "function"
    },
    {
      "inputs": [],
      "name": "_symbol",
      "outputs": [
        {
          "internalType": "string",
          "name": "",
          "type": "string"
        }
      ],
      "stateMutability": "view",
      "type": "function"
    },
    {
      "inputs": [
        {
          "internalType": "address",
          "name": "to",
          "type": "address"
        },
        {
          "internalType": "string",
          "name": "tokenURI_",
          "type": "string"
        },
        {
          "internalType": "uint256",
          "name": "quantity",
          "type": "uint256"
        }
      ],
      "name": "adminMint",
      "outputs": [
        {
          "internalType": "uint256[]",
          "name": "",
          "type": "uint256[]"
        }
      ],
      "stateMutability": "nonpayable",
      "type": "function"
    },
    {
      "inputs": [
        {
          "internalType": "address",
          "name": "to",
          "type": "address"
        },
        {
          "internalType": "uint256",
          "name": "tokenId",
          "type": "uint256"
        }
      ],
      "name": "approve",
      "outputs": [],
      "stateMutability": "nonpayable",
      "type": "function"
    },
    {
      "inputs": [
        {
          "internalType": "address",
          "name": "owner",
          "type": "address"
        }
      ],
      "name": "balanceOf",
      "outputs": [
        {
          "internalType": "uint256",
          "name": "",
          "type": "uint256"
        }
      ],
      "stateMutability": "view",
      "type": "function"
    },
    {
      "inputs": [
        {
          "internalType": "string",
          "name": "tokenURI_",
          "type": "string"
        },
        {
          "internalType": "uint256",
          "name": "quantity",
          "type": "uint256"
        }
      ],
      "name": "buy",
      "outputs": [
        {
          "internalType": "uint256[]",
          "name": "",
          "type": "uint256[]"
        }
      ],
      "stateMutability": "nonpayable",
      "type": "function"
    },
    {
      "inputs": [
        {
          "internalType": "uint256",
          "name": "tokenId",
          "type": "uint256"
        }
      ],
      "name": "getApproved",
      "outputs": [
        {
          "internalType": "address",
          "name": "",
          "type": "address"
        }
      ],
      "stateMutability": "view",
      "type": "function"
    },
    {
      "inputs": [],
      "name": "getBaseURI",
      "outputs": [
        {
          "internalType": "string",
          "name": "",
          "type": "string"
        }
      ],
      "stateMutability": "view",
      "type": "function"
    },
    {
      "inputs": [
        {
          "internalType": "bytes32",
          "name": "role",
          "type": "bytes32"
        }
      ],
      "name": "getRoleAdmin",
      "outputs": [
        {
          "internalType": "bytes32",
          "name": "",
          "type": "bytes32"
        }
      ],
      "stateMutability": "view",
      "type": "function"
    },
    {
      "inputs": [
        {
          "internalType": "address",
          "name": "owner",
          "type": "address"
        }
      ],
      "name": "getTokensOfOwner",
      "outputs": [
        {
          "internalType": "uint256[]",
          "name": "",
          "type": "uint256[]"
        }
      ],
      "stateMutability": "view",
      "type": "function"
    },
    {
      "inputs": [
        {
          "internalType": "bytes32",
          "name": "role",
          "type": "bytes32"
        },
        {
          "internalType": "address",
          "name": "account",
          "type": "address"
        }
      ],
      "name": "grantRole",
      "outputs": [],
      "stateMutability": "nonpayable",
      "type": "function"
    },
    {
      "inputs": [
        {
          "internalType": "bytes32",
          "name": "role",
          "type": "bytes32"
        },
        {
          "internalType": "address",
          "name": "account",
          "type": "address"
        }
      ],
      "name": "hasRole",
      "outputs": [
        {
          "internalType": "bool",
          "name": "",
          "type": "bool"
        }
      ],
      "stateMutability": "view",
      "type": "function"
    },
    {
      "inputs": [
        {
          "internalType": "string",
          "name": "name_",
          "type": "string"
        },
        {
          "internalType": "string",
          "name": "symbol_",
          "type": "string"
        },
        {
          "internalType": "uint256",
          "name": "_projectId",
          "type": "uint256"
        },
        {
          "internalType": "address",
          "name": "admin",
          "type": "address"
        },
        {
          "internalType": "address",
          "name": "_paymentToken",
          "type": "address"
        },
        {
          "internalType": "address",
          "name": "_retireContract",
          "type": "address"
        },
        {
          "internalType": "address",
          "name": "_treasury",
          "type": "address"
        },
        {
          "internalType": "uint256",
          "name": "_price",
          "type": "uint256"
        },
        {
          "internalType": "uint256",
          "name": "_maxSupply",
          "type": "uint256"
        },
        {
          "internalType": "string",
          "name": "baseURI_",
          "type": "string"
        },
        {
          "internalType": "address",
          "name": "minter_",
          "type": "address"
        }
      ],
      "name": "initialize",
      "outputs": [],
      "stateMutability": "nonpayable",
      "type": "function"
    },
    {
      "inputs": [
        {
          "internalType": "address",
          "name": "owner",
          "type": "address"
        },
        {
          "internalType": "address",
          "name": "operator",
          "type": "address"
        }
      ],
      "name": "isApprovedForAll",
      "outputs": [
        {
          "internalType": "bool",
          "name": "",
          "type": "bool"
        }
      ],
      "stateMutability": "view",
      "type": "function"
    },
    {
      "inputs": [],
      "name": "issuer",
      "outputs": [
        {
          "internalType": "address",
          "name": "",
          "type": "address"
        }
      ],
      "stateMutability": "view",
      "type": "function"
    },
    {
      "inputs": [],
      "name": "maxSupply",
      "outputs": [
        {
          "internalType": "uint256",
          "name": "",
          "type": "uint256"
        }
      ],
      "stateMutability": "view",
      "type": "function"
    },
    {
      "inputs": [],
      "name": "mintedCount",
      "outputs": [
        {
          "internalType": "uint256",
          "name": "",
          "type": "uint256"
        }
      ],
      "stateMutability": "view",
      "type": "function"
    },
    {
      "inputs": [],
      "name": "name",
      "outputs": [
        {
          "internalType": "string",
          "name": "",
          "type": "string"
        }
      ],
      "stateMutability": "view",
      "type": "function"
    },
    {
      "inputs": [],
      "name": "nextTokenId",
      "outputs": [
        {
          "internalType": "uint256",
          "name": "",
          "type": "uint256"
        }
      ],
      "stateMutability": "view",
      "type": "function"
    },
    {
      "inputs": [
        {
          "internalType": "uint256",
          "name": "tokenId",
          "type": "uint256"
        }
      ],
      "name": "ownerOf",
      "outputs": [
        {
          "internalType": "address",
          "name": "",
          "type": "address"
        }
      ],
      "stateMutability": "view",
      "type": "function"
    },
    {
      "inputs": [],
      "name": "paymentToken",
      "outputs": [
        {
          "internalType": "contract IERC20",
          "name": "",
          "type": "address"
        }
      ],
      "stateMutability": "view",
      "type": "function"
    },
    {
      "inputs": [],
      "name": "price",
      "outputs": [
        {
          "internalType": "uint256",
          "name": "",
          "type": "uint256"
        }
      ],
      "stateMutability": "view",
      "type": "function"
    },
    {
      "inputs": [],
      "name": "projectId",
      "outputs": [
        {
          "internalType": "uint256",
          "name": "",
          "type": "uint256"
        }
      ],
      "stateMutability": "view",
      "type": "function"
    },
    {
      "inputs": [
        {
          "internalType": "bytes32",
          "name": "role",
          "type": "bytes32"
        },
        {
          "internalType": "address",
          "name": "callerConfirmation",
          "type": "address"
        }
      ],
      "name": "renounceRole",
      "outputs": [],
      "stateMutability": "nonpayable",
      "type": "function"
    },
    {
      "inputs": [
        {
          "internalType": "uint256",
          "name": "tokenId",
          "type": "uint256"
        },
        {
          "internalType": "string",
          "name": "tokenURI_",
          "type": "string"
        }
      ],
      "name": "retire",
      "outputs": [
        {
          "internalType": "uint256",
          "name": "",
          "type": "uint256"
        }
      ],
      "stateMutability": "nonpayable",
      "type": "function"
    },
    {
      "inputs": [],
      "name": "retireContract",
      "outputs": [
        {
          "internalType": "contract CarbonRetireNFT",
          "name": "",
          "type": "address"
        }
      ],
      "stateMutability": "view",
      "type": "function"
    },
    {
      "inputs": [
        {
          "internalType": "bytes32",
          "name": "role",
          "type": "bytes32"
        },
        {
          "internalType": "address",
          "name": "account",
          "type": "address"
        }
      ],
      "name": "revokeRole",
      "outputs": [],
      "stateMutability": "nonpayable",
      "type": "function"
    },
    {
      "inputs": [
        {
          "internalType": "address",
          "name": "from",
          "type": "address"
        },
        {
          "internalType": "address",
          "name": "to",
          "type": "address"
        },
        {
          "internalType": "uint256",
          "name": "tokenId",
          "type": "uint256"
        }
      ],
      "name": "safeTransferFrom",
      "outputs": [],
      "stateMutability": "nonpayable",
      "type": "function"
    },
    {
      "inputs": [
        {
          "internalType": "address",
          "name": "from",
          "type": "address"
        },
        {
          "internalType": "address",
          "name": "to",
          "type": "address"
        },
        {
          "internalType": "uint256",
          "name": "tokenId",
          "type": "uint256"
        },
        {
          "internalType": "bytes",
          "name": "data",
          "type": "bytes"
        }
      ],
      "name": "safeTransferFrom",
      "outputs": [],
      "stateMutability": "nonpayable",
      "type": "function"
    },
    {
      "inputs": [
        {
          "internalType": "address",
          "name": "operator",
          "type": "address"
        },
        {
          "internalType": "bool",
          "name": "approved",
          "type": "bool"
        }
      ],
      "name": "setApprovalForAll",
      "outputs": [],
      "stateMutability": "nonpayable",
      "type": "function"
    },
    {
      "inputs": [
        {
          "internalType": "bytes4",
          "name": "interfaceId",
          "type": "bytes4"
        }
      ],
      "name": "supportsInterface",
      "outputs": [
        {
          "internalType": "bool",
          "name": "",
          "type": "bool"
        }
      ],
      "stateMutability": "view",
      "type": "function"
    },
    {
      "inputs": [],
      "name": "symbol",
      "outputs": [
        {
          "internalType": "string",
          "name": "",
          "type": "string"
        }
      ],
      "stateMutability": "view",
      "type": "function"
    },
    {
      "inputs": [
        {
          "internalType": "uint256",
          "name": "tokenId",
          "type": "uint256"
        }
      ],
      "name": "tokenURI",
      "outputs": [
        {
          "internalType": "string",
          "name": "",
          "type": "string"
        }
      ],
      "stateMutability": "view",
      "type": "function"
    },
    {
      "inputs": [
        {
          "internalType": "address",
          "name": "from",
          "type": "address"
        },
        {
          "internalType": "address",
          "name": "to",
          "type": "address"
        },
        {
          "internalType": "uint256",
          "name": "tokenId",
          "type": "uint256"
        }
      ],
      "name": "transferFrom",
      "outputs": [],
      "stateMutability": "nonpayable",
      "type": "function"
    },
    {
      "inputs": [
        {
          "internalType": "uint256",
          "name": "",
          "type": "uint256"
        }
      ],
      "name": "transferable",
      "outputs": [
        {
          "internalType": "bool",
          "name": "",
          "type": "bool"
        }
      ],
      "stateMutability": "view",
      "type": "function"
    },
    {
      "inputs": [],
      "name": "treasury",
      "outputs": [
        {
          "internalType": "address",
          "name": "",
          "type": "address"
        }
      ],
      "stateMutability": "view",
      "type": "function"
    }
  ],
  "bytecode": "0x60806040523461031c57604080519081016001600160401b0381118282101761022f576040908152600d82526c10d85c989bdb941c9bda9958dd609a1b602083015280519081016001600160401b0381118282101761022f57604052600581526410d413919560da1b602082015260015f5581516001600160401b03811161022f57600154600181811c91168015610312575b602082101461021157601f81116102af575b50602092601f821160011461024e57928192935f92610243575b50508160011b915f199060031b1c1916176001555b80516001600160401b03811161022f57600254600181811c91168015610225575b602082101461021157601f81116101ae575b50602091601f821160011461014e579181925f92610143575b50508160011b915f199060031b1c1916176002555b6040516129ef90816103218239f35b015190505f8061011f565b601f1982169260025f52805f20915f5b8581106101965750836001951061017e575b505050811b01600255610134565b01515f1960f88460031b161c191690555f8080610170565b9192602060018192868501518155019401920161015e565b60025f527f405787fa12a823e0f2b7631cc41b3ba8828b3321ca811111fa75cd3aa3bb5ace601f830160051c81019160208410610207575b601f0160051c01905b8181106101fc5750610106565b5f81556001016101ef565b90915081906101e6565b634e487b7160e01b5f52602260045260245ffd5b90607f16906100f4565b634e487b7160e01b5f52604160045260245ffd5b015190505f806100be565b601f1982169360015f52805f20915f5b868110610297575083600195961061027f575b505050811b016001556100d3565b01515f1960f88460031b161c191690555f8080610271565b9192602060018192868501518155019401920161025e565b60015f527fb10e2d527612073b26eecdfd717e6a320cf44b4afac2b0732d9fcbe2b7fa0cf6601f830160051c81019160208410610308575b601f0160051c01905b8181106102fd57506100a4565b5f81556001016102f0565b90915081906102e7565b90607f1690610092565b5f80fdfe6080806040526004361015610012575f80fd5b5f3560e01c90816301ffc9a71461195f5750806306fdde03146118ba578063081812fc1461187d578063095ea7b3146117915780630ca5c5041461142f5780631d1438481461140957806323b872dd146113f2578063248a9ca3146113bf5780632f2ff15d146113815780633013ce291461135b57806336568abe146113175780633fafa127146112fa578063407e4d09146110cb57806342842e0e1461109c5780635de6dc551461101e5780635f09ffbd14610e155780635ff45924146107da57806361d027b3146107b45780636352211e146107855780636b7285d31461075f57806370a082311461070e578063714c5398146106f357806375794a3c146106d657806391d148541461068c57806395d89b41146105e7578063a035b1fe146105ca578063a217fddf146105b0578063a22cb46514610515578063b09f126614610470578063b88d4fde14610404578063c87b56dd146103e5578063cf721b15146103c8578063d28d8852146102e6578063d5391393146102ac578063d547741f14610267578063d5abeb011461024a578063e985e9c5146101f15763f4c3b4d7146101be575f80fd5b346101ed5760203660031901126101ed576004355f526017602052602060ff60405f2054166040519015158152f35b5f80fd5b346101ed5760403660031901126101ed5761020a611a22565b6001600160a01b0361021a611a38565b91165f5260066020526001600160a01b0360405f2091165f52602052602060ff60405f2054166040519015158152f35b346101ed575f3660031901126101ed576020601154604051908152f35b346101ed5760403660031901126101ed576102aa600435610286611a38565b906102a56102a0825f526008602052600160405f20015490565b6125c6565b612811565b005b346101ed575f3660031901126101ed5760206040517f9f2df0fed2c77648de5860a4cc508cd0818c85b8b8a1ab4ceeef8d981c8956a68152f35b346101ed575f3660031901126101ed576040515f600b5461030681611aef565b80845290600181169081156103a45750600114610346575b6103428361032e81850382611b27565b6040519182916020835260208301906119fe565b0390f35b600b5f9081527f0175b7a638427703f0dbe7bb9bbf987a2551717b34e79f33b5b1008d1fa01db9939250905b80821061038a5750909150810160200161032e61031e565b919260018160209254838588010152019101909291610372565b60ff191660208086019190915291151560051b8401909101915061032e905061031e565b346101ed575f3660031901126101ed576020601254604051908152f35b346101ed5760203660031901126101ed5761034261032e600435611f7f565b346101ed5760803660031901126101ed5761041d611a22565b610425611a38565b906044356064359267ffffffffffffffff84116101ed57366023850112156101ed5761045e6102aa943690602481600401359101611c1c565b9261046a838383611cec565b33612896565b346101ed575f3660031901126101ed576040515f600c5461049081611aef565b80845290600181169081156103a457506001146104b7576103428361032e81850382611b27565b600c5f9081527fdf6966c971051c3d54ec59162606531493a51404a002842f56009d7e5cf4a8c7939250905b8082106104fb5750909150810160200161032e61031e565b9192600181602092548385880101520191019092916104e3565b346101ed5760403660031901126101ed5761052e611a22565b602435908115158092036101ed576001600160a01b031690811561059d57335f52600660205260405f20825f5260205260405f2060ff1981541660ff83161790556040519081527f17307eab39ab6107e8899845ad3d59bd9653f200f220920489ca2b5937696c3160203392a3005b50630b61174360e31b5f5260045260245ffd5b346101ed575f3660031901126101ed5760206040515f8152f35b346101ed575f3660031901126101ed576020601054604051908152f35b346101ed575f3660031901126101ed576040515f60025461060781611aef565b80845290600181169081156103a4575060011461062e576103428361032e81850382611b27565b60025f9081527f405787fa12a823e0f2b7631cc41b3ba8828b3321ca811111fa75cd3aa3bb5ace939250905b8082106106725750909150810160200161032e61031e565b91926001816020925483858801015201910190929161065a565b346101ed5760403660031901126101ed576106a5611a38565b6004355f5260086020526001600160a01b0360405f2091165f52602052602060ff60405f2054166040519015158152f35b346101ed575f3660031901126101ed576020601554604051908152f35b346101ed575f3660031901126101ed5761034261032e611b49565b346101ed5760203660031901126101ed576001600160a01b0361072f611a22565b16801561074c575f526004602052602060405f2054604051908152f35b6322718ad960e21b5f525f60045260245ffd5b346101ed575f3660031901126101ed5760206001600160a01b03600a5416604051908152f35b346101ed5760203660031901126101ed5760206107a360043561221d565b6001600160a01b0360405191168152f35b346101ed575f3660031901126101ed5760206001600160a01b03600f5416604051908152f35b346101ed576101603660031901126101ed5760043567ffffffffffffffff81116101ed5761080c903690600401611a4e565b9060243567ffffffffffffffff81116101ed5761082d903690600401611a4e565b9290606435936001600160a01b0385168086036101ed57608435916001600160a01b0383168093036101ed5760a435936001600160a01b0385168095036101ed5760c435956001600160a01b0387168097036101ed576101243567ffffffffffffffff81116101ed576108a4903690600401611a4e565b989099610144356001600160a01b03811681036101ed5760ff60145416610dd0578615610da1578715610d5c578915610d2a576108e36108e992612607565b506126b6565b5067ffffffffffffffff8211610b3457610904600b54611aef565b601f8111610cc7575b505f90601f8311600114610c445761093c92915f9183610c39575b50508160011b915f199060031b1c19161790565b600b555b67ffffffffffffffff8211610b345761095a600c54611aef565b601f8111610bd6575b505f90601f8311600114610b535761099192915f9183610b485750508160011b915f199060031b1c19161790565b600c555b604435600d556001600160a01b0319600e541617600e556001600160a01b031960095416176009556001600160a01b0319600a541617600a556001600160a01b0319600f541617600f5560e43560105561010435601155600160ff19601454161760145567ffffffffffffffff8111610b3457610a13601354611aef565b601f8111610ad1575b505f601f8211600114610a59578190610a49935f92610a4e5750508160011b915f199060031b1c19161790565b601355005b013590508380610928565b601f198216927f66de8ffda797e3de9c05e8fc57b3bf0ec28a930d40b0d285d93c06501cf6a090915f5b858110610ab957508360019510610aa0575b505050811b01601355005b01355f19600384901b60f8161c19169055828080610a95565b90926020600181928686013581550194019101610a83565b60135f527f66de8ffda797e3de9c05e8fc57b3bf0ec28a930d40b0d285d93c06501cf6a090601f830160051c81019160208410610b2a575b601f0160051c01905b818110610b1f5750610a1c565b5f8155600101610b12565b9091508190610b09565b634e487b7160e01b5f52604160045260245ffd5b013590508980610928565b601f19831691600c5f527fdf6966c971051c3d54ec59162606531493a51404a002842f56009d7e5cf4a8c7925f5b818110610bbe5750908460019594939210610ba5575b505050811b01600c55610995565b01355f19600384901b60f8161c19169055888080610b97565b91936020600181928787013581550195019201610b81565b600c5f527fdf6966c971051c3d54ec59162606531493a51404a002842f56009d7e5cf4a8c7601f840160051c81019160208510610c2f575b601f0160051c01905b818110610c245750610963565b5f8155600101610c17565b9091508190610c0e565b013590508b80610928565b601f19831691600b5f527f0175b7a638427703f0dbe7bb9bbf987a2551717b34e79f33b5b1008d1fa01db9925f5b818110610caf5750908460019594939210610c96575b505050811b01600b55610940565b01355f19600384901b60f8161c191690558a8080610c88565b91936020600181928787013581550195019201610c72565b600b5f527f0175b7a638427703f0dbe7bb9bbf987a2551717b34e79f33b5b1008d1fa01db9601f840160051c81019160208510610d20575b601f0160051c01905b818110610d15575061090d565b5f8155600101610d08565b9091508190610cff565b60405162461bcd60e51b815260206004820152600a602482015269074726561737572793d360b41b6044820152606490fd5b60405162461bcd60e51b815260206004820152600e60248201527f7061796d656e74546f6b656e3d300000000000000000000000000000000000006044820152606490fd5b60405162461bcd60e51b8152602060048201526007602482015266061646d696e3d360cc1b6044820152606490fd5b60405162461bcd60e51b815260206004820152601360248201527f616c726561647920696e697469616c697a6564000000000000000000000000006044820152606490fd5b346101ed5760403660031901126101ed5760043560243567ffffffffffffffff81116101ed57610e49903690600401611a4e565b9190610e548261221d565b6001600160a01b0333911603610fed57815f5260036020526001600160a01b0360405f2054168015908115610fb6575b835f52600360205260405f206001600160a01b03198154169055835f827fddf252ad1be2c89b69c2b068fc378daa952ba7f163c4a11628f55a4df523b3ef8280a450610fa357826020916001600160a01b03600a5416905f6064604051809881968295633ca91ab360e21b845233600485015260406024850152816044850152848401378181018301849052601f01601f191681010301925af1908115610f98575f91610f63575b602092506040518281527fb3775f672e1adf43bf7834b692675bfee4db72f83e42da8cff694ca295a89eca843392a3604051908152f35b90506020823d602011610f90575b81610f7e60209383611b27565b810103126101ed576020915190610f2c565b3d9150610f71565b6040513d5f823e3d90fd5b50637e27328960e01b5f5260045260245ffd5b610fd5845f52600560205260405f206001600160a01b03198154169055565b805f52600460205260405f205f198154019055610e84565b60405162461bcd60e51b81526020600482015260096024820152683737ba1037bbb732b960b91b6044820152606490fd5b346101ed5760203660031901126101ed576001600160a01b0361103f611a22565b165f52601860205260405f206040519081602082549182815201915f5260205f20905f5b818110611086576103428561107a81870382611b27565b60405191829182611a7c565b8254845260209093019260019283019201611063565b346101ed576102aa6110ad36611ab5565b90604051926110bd602085611b27565b5f845261046a838383611cec565b346101ed5760603660031901126101ed576110e4611a22565b60243567ffffffffffffffff81116101ed57611104903690600401611a4e565b335f9081527f51a495916474fe1a0c0fcfb65a8a97682b84a054118858cdd1f5dfd7fc0919eb602052604090205460443593929060ff16156112c35760125484810180911161125a5760115411156112925783151580611287575b61116b90949294611c52565b6001600160a01b038316935f5b8381106111d057855f52601860205260405f206040519081602082549182815201915f5260205f20905f5b8181106111ba576103428561107a81870382611b27565b82548452602090930192600192830192016111a3565b6111db601554611c9e565b90816015556012546001810180911161125a576012556111fb8287612250565b8261126e575b865f5260186020526112168260405f20611cac565b865f52601860205260405f2054915f19830192831161125a57600192815f52601960205260405f20555f52601760205260405f208260ff1982541617905501611178565b634e487b7160e01b5f52601160045260245ffd5b61128261127c368587611c1c565b8361245a565b611201565b50601484111561115f565b60405162461bcd60e51b81526020600482015260096024820152686d6178537570706c7960b81b6044820152606490fd5b63e2517d3f60e01b5f52336004527f9f2df0fed2c77648de5860a4cc508cd0818c85b8b8a1ab4ceeef8d981c8956a660245260445ffd5b346101ed575f3660031901126101ed576020600d54604051908152f35b346101ed5760403660031901126101ed57611330611a38565b336001600160a01b0382160361134c576102aa90600435612811565b63334bd91960e11b5f5260045ffd5b346101ed575f3660031901126101ed5760206001600160a01b0360095416604051908152f35b346101ed5760403660031901126101ed576102aa6004356113a0611a38565b906113ba6102a0825f526008602052600160405f20015490565b612782565b346101ed5760203660031901126101ed5760206113ea6004355f526008602052600160405f20015490565b604051908152f35b346101ed576102aa61140336611ab5565b91611cec565b346101ed575f3660031901126101ed5760206001600160a01b03600e5416604051908152f35b346101ed5760403660031901126101ed5760043567ffffffffffffffff81116101ed57611460903690600401611a4e565b60243560025f54146117825760025f5560ff6014541615611752576012546011541115611722576010549283156116dd57818402938404820361125a57811515806116d2575b6114af90611c52565b600160ff1960165416176016555f5b828110611607578460206001600160a01b03600954169160646001600160a01b03600f54165f60405195869485936323b872dd60e01b8552336004860152602485015260448401525af1908115610f98575f916115cc575b50156115875760ff1960165416601655335f52601860205260405f206040519081602082549182815201915f5260205f20905f5b818110611571576103428561156181870382611b27565b60015f5560405191829182611a7c565b825484526020909301926001928301920161154a565b60405162461bcd60e51b815260206004820152600e60248201527f7061796d656e74206661696c65640000000000000000000000000000000000006044820152606490fd5b90506020813d6020116115ff575b816115e760209383611b27565b810103126101ed575180151581036101ed5781611516565b3d91506115da565b611612601554611c9e565b90816015556012546001810180911161125a576012556116328233612250565b846116bf575b335f52601860205261164d8260405f20611cac565b335f52601860205260405f2054915f19830192831161125a57600192815f52601960205260405f2055805f52601760205260405f2060ff1981541690556010546040519081527ff761777482b4b40d2bcc0d050cfba6829900a2d8b3484bd0244ec0feeb3db50460203392a3016114be565b6116cd61127c368786611c1c565b611638565b5060148211156114a6565b60405162461bcd60e51b815260206004820152601360248201527f667265653f20757365206d696e7420726f6c65000000000000000000000000006044820152606490fd5b60405162461bcd60e51b81526020600482015260086024820152671cdbdb19081bdd5d60c21b6044820152606490fd5b60405162461bcd60e51b81526020600482015260086024820152671b9bdd081a5b9a5d60c21b6044820152606490fd5b633ee5aeb560e01b5f5260045ffd5b346101ed5760403660031901126101ed576117aa611a22565b6024356117b68161221d565b3315158061186a575b80611837575b6118245781906001600160a01b0380851691167f8c5be1e5ebec7d5bd14f71427d1e84f3dd0314c0f7b2291e5b200ac8c7c3b9255f80a45f5260056020526001600160a01b0360405f2091166001600160a01b03198254161790555f80f35b63a9fbf51f60e01b5f523360045260245ffd5b506001600160a01b0381165f52600660205260405f206001600160a01b0333165f5260205260ff60405f205416156117c5565b50336001600160a01b03821614156117bf565b346101ed5760203660031901126101ed5760043561189a8161221d565b505f52600560205260206001600160a01b0360405f205416604051908152f35b346101ed575f3660031901126101ed576040515f6001546118da81611aef565b80845290600181169081156103a45750600114611901576103428361032e81850382611b27565b60015f9081527fb10e2d527612073b26eecdfd717e6a320cf44b4afac2b0732d9fcbe2b7fa0cf6939250905b8082106119455750909150810160200161032e61031e565b91926001816020925483858801015201910190929161192d565b346101ed5760203660031901126101ed576004359063ffffffff60e01b82168092036101ed57602091637965db0b60e01b81149081156119a1575b5015158152f35b632483248360e11b8114915081156119bb575b508361199a565b6380ac58cd60e01b8114915081156119ed575b81156119dc575b50836119b4565b6301ffc9a760e01b149050836119d5565b635b5e139f60e01b811491506119ce565b805180835260209291819084018484015e5f828201840152601f01601f1916010190565b600435906001600160a01b03821682036101ed57565b602435906001600160a01b03821682036101ed57565b9181601f840112156101ed5782359167ffffffffffffffff83116101ed57602083818601950101116101ed57565b60206040818301928281528451809452019201905f5b818110611a9f5750505090565b8251845260209384019390920191600101611a92565b60609060031901126101ed576004356001600160a01b03811681036101ed57906024356001600160a01b03811681036101ed579060443590565b90600182811c92168015611b1d575b6020831014611b0957565b634e487b7160e01b5f52602260045260245ffd5b91607f1691611afe565b90601f8019910116810190811067ffffffffffffffff821117610b3457604052565b604051905f8260135491611b5c83611aef565b8083529260018116908115611be15750600114611b82575b611b8092500383611b27565b565b5060135f90815290917f66de8ffda797e3de9c05e8fc57b3bf0ec28a930d40b0d285d93c06501cf6a0905b818310611bc5575050906020611b8092820101611b74565b6020919350806001915483858901015201910190918492611bad565b60209250611b8094915060ff191682840152151560051b820101611b74565b67ffffffffffffffff8111610b3457601f01601f191660200190565b929192611c2882611c00565b91611c366040519384611b27565b8294818452818301116101ed578281602093845f960137010152565b15611c5957565b60405162461bcd60e51b815260206004820152600f60248201527f312d3230206d61782070657220747800000000000000000000000000000000006044820152606490fd5b5f19811461125a5760010190565b80549068010000000000000000821015610b345760018201808255821015611cd8575f5260205f200155565b634e487b7160e01b5f52603260045260245ffd5b919060ff601654161580611f2a575b80611f18575b611ec7576001600160a01b03168015611eb457815f5260036020526001600160a01b0360405f2054169233151580611e1e575b506001600160a01b039084611de7575b825f52600460205260405f2060018154019055835f52600360205260405f208383198254161790558383867fddf252ad1be2c89b69c2b068fc378daa952ba7f163c4a11628f55a4df523b3ef5f80a41692838103611dcd57507f305b1ae259a28473d5023ec26f6aec62369560edb2c5947675b070fdb36a36986020600d5492604051908152a4565b82846364283d7b60e01b5f5260045260245260445260645ffd5b611e06845f52600560205260405f206001600160a01b03198154169055565b845f52600460205260405f205f198154019055611d44565b80611e5d575b15611e2f575f611d34565b8284611e4757637e27328960e01b5f5260045260245ffd5b63177e802f60e01b5f523360045260245260445ffd5b503384148015611e8b575b80611e245750825f526005602052336001600160a01b0360405f20541614611e24565b50835f52600660205260405f206001600160a01b0333165f5260205260ff60405f205416611e68565b633250574960e11b5f525f60045260245ffd5b60405162461bcd60e51b815260206004820152602360248201527f5472616e73666572732064697361626c656420666f7220746869732070726f6a6044820152621958dd60ea1b6064820152608490fd5b506001600160a01b0383161515611d01565b50815f52601760205260ff60405f20541615611cfb565b611b80906020808095946040519684889551918291018487015e8401908282015f8152815193849201905e01015f815203601f198101845283611b27565b611f888161221d565b50805f52600760205260405f2060405190815f825492611fa784611aef565b80845293600181169081156121fb57506001146121b7575b50611fcc92500382611b27565b611fd4611b49565b8051156121b15781516121a7575050611fec8161221d565b50611ff5611b49565b8051909190156121915780815f927a184f03e93ff9f4daa797ed6e38ed64bf6a1f010000000000000000811015612166575b50806d04ee2d6d415b85acef8100000000600a92101561214b575b662386f26fc10000811015612137575b6305f5e100811015612126575b612710811015612117575b6064811015612109575b10156120fe575b600a6021600184019361208d85611c00565b9461209b6040519687611b27565b8086526120aa601f1991611c00565b013660208701378401015b5f1901917f30313233343536373839616263646566000000000000000000000000000000008282061a8353049081156120f057600a906120b5565b50506120fb91611f41565b90565b60019091019061207b565b606460029104930192612074565b6127106004910493019261206a565b6305f5e1006008910493019261205f565b662386f26fc1000060109104930192612052565b6d04ee2d6d415b85acef810000000060209104930192612042565b604093507a184f03e93ff9f4daa797ed6e38ed64bf6a1f01000000000000000090049050600a612027565b50506040516121a1602082611b27565b5f815290565b6120fb9250611f41565b50905090565b90505f9291925260205f20905f915b8183106121df575050906020611fcc928201015f611fbf565b60209193508060019154838588010152019101909183926121c6565b905060209250611fcc94915060ff191682840152151560051b8201015f611fbf565b805f5260036020526001600160a01b0360405f20541690811561223e575090565b637e27328960e01b5f5260045260245ffd5b90602090604051906122628383611b27565b5f82526001600160a01b038416938415611eb457815f52600384526001600160a01b0360405f2054168015159081612424575b865f526004865260405f2060018154019055835f526003865260405f20876001600160a01b03198254161790558387827fddf252ad1be2c89b69c2b068fc378daa952ba7f163c4a11628f55a4df523b3ef5f80a450612411573b6122fa575b50505050565b9161233791819495936040519384928392630a85bd0160e11b84523360048501525f602485015260448401526080606484015260848301906119fe565b03815f885af15f91816123d1575b5061239a5750503d15612392573d9061235d82611c00565b9161236b6040519384611b27565b82523d5f8284013e5b8151918261238f5783633250574960e11b5f5260045260245ffd5b01fd5b606090612374565b909291506001600160e01b03191663757a42ff60e11b016123bf57505f8080806122f4565b633250574960e11b5f5260045260245ffd5b9091508381813d831161240a575b6123e98183611b27565b810103126101ed57516001600160e01b0319811681036101ed57905f612345565b503d6123df565b6339e3563760e11b5f525f60045260245ffd5b612443845f52600560205260405f206001600160a01b03198154169055565b805f526004865260405f205f198154019055612295565b919091805f52600760205260405f20835167ffffffffffffffff8111610b34576124848254611aef565b601f8111612581575b506020601f82116001146124f9578160209493926124e2927ff8e1a15aba9398e019f0b49df1a4fde98ee17ae345cb5f6b5e2c27f5033e8ce797985f926124ee5750508160011b915f199060031b1c19161790565b90555b604051908152a1565b015190505f80610928565b601f19821695835f52815f20965f5b818110612569575096600192849260209796957ff8e1a15aba9398e019f0b49df1a4fde98ee17ae345cb5f6b5e2c27f5033e8ce7999a10612551575b505050811b0190556124e5565b01515f1960f88460031b161c191690555f8080612544565b83830151895560019098019760209384019301612508565b825f5260205f20601f830160051c810191602084106125bc575b601f0160051c01905b8181106125b1575061248d565b5f81556001016125a4565b909150819061259b565b805f52600860205260405f206001600160a01b0333165f5260205260ff60405f205416156125f15750565b63e2517d3f60e01b5f523360045260245260445ffd5b6001600160a01b0381165f9081527f5eff886ea0ce6ca488a3d6e336d6c0f75f46d19b42c06ce5ee98e42c96d256c7602052604090205460ff166126b1576001600160a01b03165f8181527f5eff886ea0ce6ca488a3d6e336d6c0f75f46d19b42c06ce5ee98e42c96d256c760205260408120805460ff191660011790553391907f2f8788117e7eff1d82e926ec794901d17c78024a50270940304540a733656f0d8180a4600190565b505f90565b6001600160a01b0381165f9081527f51a495916474fe1a0c0fcfb65a8a97682b84a054118858cdd1f5dfd7fc0919eb602052604090205460ff166126b1576001600160a01b03165f8181527f51a495916474fe1a0c0fcfb65a8a97682b84a054118858cdd1f5dfd7fc0919eb60205260408120805460ff191660011790553391907f9f2df0fed2c77648de5860a4cc508cd0818c85b8b8a1ab4ceeef8d981c8956a6907f2f8788117e7eff1d82e926ec794901d17c78024a50270940304540a733656f0d9080a4600190565b805f52600860205260405f206001600160a01b0383165f5260205260ff60405f205416155f1461280b57805f52600860205260405f206001600160a01b0383165f5260205260405f20600160ff198254161790556001600160a01b03339216907f2f8788117e7eff1d82e926ec794901d17c78024a50270940304540a733656f0d5f80a4600190565b50505f90565b805f52600860205260405f206001600160a01b0383165f5260205260ff60405f2054165f1461280b57805f52600860205260405f206001600160a01b0383165f5260205260405f2060ff1981541690556001600160a01b03339216907ff6391f5c32d9c69d2a47ea670b442974b53935d1edc7fd64eb21e047a839171b5f80a4600190565b93909293823b6128a8575b5050505050565b6128ef6001600160a01b0392836020951696846040519788968796630a85bd0160e11b885216600487015216602485015260448401526080606484015260848301906119fe565b03815f865af15f9181612974575b5061295257503d1561294b573d61291381611c00565b906129216040519283611b27565b81523d5f602083013e5b805190816129465782633250574960e11b5f5260045260245ffd5b602001fd5b606061292b565b6001600160e01b03191663757a42ff60e11b016123bf57505f808080806128a1565b9091506020813d6020116129b1575b8161299060209383611b27565b810103126101ed57516001600160e01b0319811681036101ed57905f6128fd565b3d915061298356fea26469706673582212204265660a02cddf3d21a2172d8d3b3836d67a0eac5504da37b6f62933330189a064736f6c634300081c0033",
  "linkReferences": {},
  "deployedLinkReferences": {},
  "immutableReferences": {},
  "inputSourceName": "project/contracts/CarbonProjectNFT.sol",
  "buildInfoId": "solc-0_8_28-7691459fb7a8cf79d7b308091641917c927247c4"
}